:100000000C9462000C948A000C948A000C948A0070
:100010000C948A000C948A000C948A000C948A0038
:100020000C948A000C948A000C948A000C948A0028
:100030000C948A000C948A000C948A000C948A0018
:100040000C94C2010C948A000C9432020C940C02A1
:100050000C948A000C948A000C948A000C948A00F8
:100060000C948A000C948A000000000024002700F1
:100070002A000000000023002600290000000000E4
:10008000250028002B0004040404040404040202D4
:100090000202020203030303030301020408102007
:1000A0004080010204081020010204081020000012
:1000B0000008000201000003040700000000000027
:1000C0000000950311241FBECFEFD8E0DEBFCDBFE7
:1000D00011E0A0E0B1E0E4E9F7E002C005900D9284
:1000E000AE31B107D9F721E0AEE1B1E001C01D9218
:1000F000A53CB207E1F710E0C2E6D0E004C02197CA
:10010000FE010E94C203C136D107C9F70E946402F2
:100110000C94C8030C940000833081F028F48130E3
:1001200099F08230A9F008958730A9F08830C9F09D
:100130008430B1F4809180008F7D03C08091800075
:100140008F7780938000089584B58F7784BD08955C
:1001500084B58F7DFBCF8091B0008F778093B00006
:1001600008958091B0008F7DF9CFAF92BF92CF926A
:10017000DF92EF92FF920F931F93CF93DF936C0167
:100180007B018B01040F151FEB015E01AE18BF0848
:10019000C017D10759F06991D601ED91FC910190FA
:1001A000F081E02DC6010995892B79F7C501DF9112
:1001B000CF911F910F91FF90EF90DF90CF90BF9064
:1001C000AF900895FC01538D448D252F30E0842F8E
:1001D00090E0821B930B541710F0CF96089501976F
:1001E0000895FC01918D828D981761F0A28DAE0F5C
:1001F000BF2FB11D5D968C91928D9F5F9F73928FE3
:1002000090E008958FEF9FEF0895FC01918D828D0E
:10021000981731F0828DE80FF11D858D90E00895DB
:100220008FEF9FEF0895FC01918D228D892F90E033
:10023000805C9F4F821B91098F73992708958EE1EF
:1002400091E00E94130121E0892B09F420E0822F24
:10025000089580E090E0892B29F00E941F01811110
:100260000C9400000895FC01A48DA80FB92FB11DB6
:10027000A35ABF4F2C91848D90E001968F739927DC
:10028000848FA689B7892C93A089B1898C918370BA
:1002900080648C93938D848D981306C00288F389B3
:1002A000E02D80818F7D80830895EF92FF920F93E0
:1002B0001F93CF93DF93EC0181E0888F9B8D8C8D12
:1002C00098131AC0E889F989808185FF15C09FB706
:1002D000F894EE89FF896083E889F98980818370C9
:1002E000806480839FBF81E090E0DF91CF911F9178
:1002F0000F91FF90EF900895F62E0B8D10E00F5F99
:100300001F4F0F731127E02E8C8D8E110CC00FB66E
:1003100007FCFACFE889F989808185FFF5CFCE0106
:100320000E943301F1CFEB8DEC0FFD2FF11DE35A4D
:10033000FF4FF0829FB7F8940B8FEA89FB89808189
:100340008062CFCFCF93DF93EC01888D8823B9F003
:10035000AA89BB89E889F9898C9185FD03C08081D0
:1003600086FD0DC00FB607FCF7CF8C9185FFF2CF4D
:10037000808185FFEDCFCE010E943301E9CFDF916F
:10038000CF9108951F920F920FB60F9211242F93C1
:100390003F938F939F93AF93BF938091C1019091AF
:1003A000C201A091C301B091C4013091C00123E00A
:1003B000230F2D3758F50196A11DB11D2093C001C3
:1003C0008093C1019093C201A093C301B093C40173
:1003D0008091BC019091BD01A091BE01B091BF017F
:1003E0000196A11DB11D8093BC019093BD01A09306
:1003F000BE01B093BF01BF91AF919F918F913F918B
:100400002F910F900FBE0F901F90189526E8230F85
:100410000296A11DB11DD2CF1F920F920FB60F925F
:1004200011242F933F934F935F936F937F938F93F9
:100430009F93AF93BF93EF93FF938EE191E00E9460
:100440003301FF91EF91BF91AF919F918F917F9178
:100450006F915F914F913F912F910F900FBE0F9031
:100460001F9018951F920F920FB60F9211242F9381
:100470008F939F93EF93FF93E0912E01F0912F01C3
:100480008081E0913401F091350182FD1BC09081A3
:10049000809137018F5F8F7320913801821741F06F
:1004A000E0913701F0E0E25EFE4F958F80933701D7
:1004B000FF91EF919F918F912F910F900FBE0F9011
:1004C0001F9018958081F4CF789484B5826084BDA4
:1004D00084B5816084BD85B5826085BD85B5816048
:1004E00085BD80916E00816080936E0010928100C6
:1004F0008091810082608093810080918100816081
:100500008093810080918000816080938000809141
:10051000B10084608093B1008091B00081608093CD
:10052000B00080917A00846080937A0080917A0094
:10053000826080937A0080917A00816080937A0053
:1005400080917A00806880937A001092C1007CE9E3
:10055000E72E70E0F72EF7012491E8E8CE2EE0E0D8
:10056000DE2EF60184918823C1F090E0880F991F58
:10057000FC01E859FF4FA591B491FC01E458FF4FED
:10058000C591D4919FB7F8943C91822F8095832395
:100590008C938881282B28839FBFC7EAD0E0FE0177
:1005A000249103E910E0F8018491882399F090E008
:1005B000880F991FFC01E859FF4FA591B491FC01E8
:1005C000E458FF4F859194918FB7F8949C91292B13
:1005D0002C938FBFE0912E01F0912F0182E0808358
:1005E000E0912A01F0912B011082E0912C01F09111
:1005F0002D0180E1808310923601E0913201F0916B
:10060000330186E08083E0913001F09131018081F7
:1006100080618083E0913001F091310180818860B8
:100620008083E0913001F091310180818068808386
:10063000E0913001F091310180818F7D80833BEB2F
:10064000632E30E0732E40E0842E40E0942EE0EBE9
:10065000F0E08491F701B490F601A490A1104EC08F
:10066000B12CA12C3324339422242394F3018491BC
:10067000FE014490F80154905520A1F081110E9490
:100680008C00E52DF0E0EE0FFF1FE458FF4FA59121
:10069000B4918FB7F8949C91211045C040944922A1
:1006A0004C928FBF8091BB013816E1F062E171E09E
:1006B000AB2811F465E171E0FB0101900020E9F73E
:1006C0003197AF01461B570B8EE191E00E94B500B8
:1006D00042E050E06AE171E08EE191E00E94B500F5
:1006E0003092BB018114910409F4B1CF0E941F0123
:1006F000882309F4ACCF0E940000A9CF81110E9489
:100700008C00EA2DF0E0EE0FFF1FEE58FF4FA59191
:10071000B4918C91B82209F4A3CFAA24A394B12C4C
:10072000312C212CA3CF492ABBCFEEE1F1E013827B
:10073000128288EE93E0A0E0B0E084839583A683E4
:10074000B78384E091E09183808385EC90E0958786
:10075000848784EC90E09787868780EC90E0918B8B
:10076000808B81EC90E0938B828B82EC90E0958B78
:10077000848B86EC90E0978B868B118E128E138E75
:10078000148E0895EE0FFF1F0590F491E02D09944B
:04079000F894FFCF0B
:10079400000000005501B500E200A2011301F100C0
:0E07A4000501555000444F574E000D0A00004D
:00000001FF
