:100000000C947B000C94A3000C94A3000C94A3000C
:100010000C94A3000C94A3000C94A3000C94A300D4
:100020000C94A3000C94A3000C94A3000C94A300C4
:100030000C94A3000C94A3000C94A3000C94A300B4
:100040000C94C6050C94A3000C9436060C94100670
:100050000C94A3000C94A3000C94A3000C94A30094
:100060000C9468060C94A3001F1C1F1E1F1E1F1F4C
:100070001E1F1E4A616E4665624D61724170724D6F
:1000800061794A756E4A756C4175675365704F6347
:10009000744E6F764465630053756E4D6F6E547584
:1000A0006557656454687546726953617400000051
:1000B0000000250028002B000404040404040404A8
:1000C0000202020202020303030303030102040803
:1000D00010204080010204081020010204081020B2
:1000E00000000008000201000003040700000000F7
:1000F00000000000870711241FBECFEFD8E0DEBF4D
:10010000CDBF22E0A4E5B1E001C01D92A63CB2073C
:10011000E1F711E0A0E0B1E0E2E0FAE102C0059011
:100120000D92A435B107D9F710E0CBE7D0E004C0B9
:100130002197FE010E94BA0BCA37D107C9F70E9466
:10014000C0070C94FF0C0C94000090E0FC01E052FE
:10015000FF4F2491FC01E453FF4F3491FC01E8541C
:10016000FF4FE491EE23C9F0222339F0233001F14F
:10017000A8F4213019F1223029F1F0E0EE0FFF1F31
:10018000E255FF4FA591B4918FB7F894EC916111AE
:1001900026C030953E233C938FBF08952730A9F0A9
:1001A0002830C9F0243049F7809180008F7D03C04A
:1001B000809180008F7780938000DFCF84B58F7728
:1001C00084BDDBCF84B58F7DFBCF8091B0008F776E
:1001D0008093B000D2CF8091B0008F7DF9CF3E2BBD
:1001E000DACF3FB7F8948091A3019091A401A09138
:1001F000A501B091A60126B5A89B05C02F3F19F017
:100200000196A11DB11D3FBFBA2FA92F982F882796
:10021000BC01CD01620F711D811D911D42E0660F71
:10022000771F881F991F4A95D1F70895089508955B
:10023000AF92BF92CF92DF92EF92FF920F931F93F4
:10024000CF93DF936C017B018B01040F151FEB0132
:100250005E01AE18BF08C017D10759F06991D601E9
:10026000ED91FC910190F081E02DC6010995892B5B
:1002700079F7C501DF91CF911F910F91FF90EF901A
:10028000DF90CF90BF90AF900895FC01538D448DC7
:10029000252F30E0842F90E0821B930B541710F031
:1002A000CF96089501970895FC01918D828D98173E
:1002B00061F0A28DAE0FBF2FB11D5D968C91928D16
:1002C0009F5F9F73928F90E008958FEF9FEF089547
:1002D000FC01918D828D981731F0828DE80FF11D10
:1002E000858D90E008958FEF9FEF0895FC01918D2B
:1002F000228D892F90E0805C9F4F821B91098F7324
:100300009927089589E192E00E94760121E0892BE6
:1003100009F420E0822F089580E090E0892B29F0F5
:100320000E94820181110C9400000895FC01A48DAB
:10033000A80FB92FB11DA35ABF4F2C91848D90E007
:1003400001968F739927848FA689B7892C93A089EA
:10035000B1898C91837080648C93938D848D981374
:1003600006C00288F389E02D80818F7D8083089507
:10037000EF92FF920F931F93CF93DF93EC0181E0F5
:10038000888F9B8D8C8D98131AC0E889F98980819C
:1003900085FF15C09FB7F894EE89FF896083E889CF
:1003A000F98980818370806480839FBF81E090E0C1
:1003B000DF91CF911F910F91FF90EF900895F62E4E
:1003C0000B8D10E00F5F1F4F0F731127E02E8C8DE8
:1003D0008E110CC00FB607FCFACFE889F98980812D
:1003E00085FFF5CFCE010E949601F1CFEB8DEC0F8A
:1003F000FD2FF11DE35AFF4FF0829FB7F8940B8F4A
:10040000EA89FB8980818062CFCFCF93DF93EC01B3
:10041000888D8823B9F0AA89BB89E889F9898C91EC
:1004200085FD03C0808186FD0DC00FB607FCF7CFA8
:100430008C9185FFF2CF808185FFEDCFCE010E94A8
:100440009601E9CFDF91CF91089520917501260F94
:100450003327331F21323105ECF42091EF01FC01E9
:1004600090E080E0243069F082E00895A091750169
:100470002191AC014B5A5E4FA40FB52FB11D2C93A7
:100480000196861798F380917501680F6093750146
:1004900080E0089581E008951092EF0181E080935B
:1004A000EE011092C90161E082E10E94A50061E0C5
:1004B00083E10E94A500E9EBF0E080818E7F8083DC
:1004C00080818D7F808388E48093B80085E4809369
:1004D000BC000895CF93DF9391E09093540188235B
:1004E000B9F0C091B800D091BA008091BC008A7B6D
:1004F0008093BC0060E082E10E94A50060E083E19F
:100500000E94A5000E944C02D093BA00C093B8008C
:10051000DF91CF9108958F929F92AF92BF92CF9229
:10052000DF92EF92FF920F931F93CF93DF93D091BF
:100530001802D13208F0D7C0182FC09117020E94BC
:10054000F1006B017C018091EF0181116BC082E0B1
:100550008093EF011093EE018FEF8093ED011092E5
:10056000EC01D093EB01A7EFB1E0EBECF1E080E020
:10057000D81391C01092CA018091CA01CC0FC82B28
:10058000C093CA018091C901813009F088C01092DE
:10059000C9010E94F1006B017C018091CA01809326
:1005A000BB008091F1019091F201A091F301B09113
:1005B000F401892B8A2B8B2BA1F00E94F100009172
:1005C000F1011091F2012091F3013091F4016C19C5
:1005D0007D098E099F09061717072807390708F4B0
:1005E00042C08091BC0083FDD8CF85EC8093BC00D5
:1005F0000E94F1006B017C018091EF01823009F4CF
:1006000050C08091ED018F3F09F46FC08091ED01E2
:10061000803209F46CC08091ED01803309F469C027
:1006200084E026C08091F1019091F201A091F30144
:10063000B091F401892B8A2B8B2B09F484CF0E9473
:10064000F1008090F1019090F201A090F301B09040
:10065000F4016C197D098E099F0986169706A80674
:10066000B90608F070CF8091F0010E946A0285E01F
:100670001092F601109218021092F501DF91CF91BD
:100680001F910F91FF90EF90DF90CF90BF90AF90B0
:100690009F908F9008959D9191938F5F69CF85EE84
:1006A000A5CF8091F1019091F201A091F301B09159
:1006B000F401892B8A2B8B2B09F49ECF0E94F10029
:1006C0000091F1011091F2012091F3013091F401B8
:1006D0006C197D098E099F09061717072807390726
:1006E00008F08ACFC0CF81E0C3CF80E0C1CF82E0E5
:1006F000BFCF83E0BDCF0895E091A8018091A7010D
:10070000E81730F4F0E0E755FE4F808190E008955F
:100710008FEF9FEF08959091A8018091A7012FEF8F
:100720003FEF981748F4E92FF0E0E755FE4F20819E
:1007300030E09F5F9093A801C90108958091A701BF
:100740009091A801891B990B0895CF92DF92EF92A7
:10075000FF920F931F93CF93DF937C01CB018A010C
:100760002091F501222389F0EB016B01C40ED51E07
:10077000CC15DD0569F06991D701ED91FC910190EF
:10078000F081E02DC7010995F3CF642F0E94250267
:10079000C801DF91CF911F910F91FF90EF90DF90F3
:1007A000CF900895CF93DF931F92CDB7DEB76983C3
:1007B0002091F5012223F9F020911802203258F0FF
:1007C00021E030E0FC013383228390E080E00F9051
:1007D000DF91CF9108958091F601E82FF0E0E95084
:1007E000FE4F998190838F5F8093F601809318026A
:1007F00081E090E0ECCF61E0CE0101960E942502FD
:10080000F7CF90E080E008951F93CF93DF93EA0144
:10081000122FDC0111968D919C91DC01ED91FC91E0
:100820000280F381E02D0995C817D90729F4812F9B
:100830000E948B0291E0811190E0892FDF91CF918E
:100840001F910895CF93DF93EC018B818823A1F052
:10085000888191E09093F501809317021092F60140
:100860001092180281E00E948B0291E0811190E0C9
:10087000892FDF91CF9108951092A8011092A701BE
:100880001092F601109218020E944C0286E191E04B
:1008900090939B0180939A0187E191E09093990155
:1008A0008093980181E08B83CE010E942204982FCF
:1008B0008111CECFDDCF2F923F924F925F926F92F8
:1008C0007F928F929F92AF92BF92CF92DF92EF92E0
:1008D000FF920F931F93CF93DF936C011B015A017B
:1008E000F12CE12CEA14FB0408F0F5C0D6011496B3
:1008F0008D919C9185010E191F098017910708F4AD
:100900008C01F601D0810E94F1002B013C01809105
:10091000EF01811172C0C02F013208F0C0E2F1E096
:10092000F093EF0121E0C501801B910BE816F90659
:1009300008F420E02093EE018FEF8093ED011092F8
:10094000EC018C0F8093EB01A1E0A093CA01809190
:10095000CA01DD0FD82BD093CA018091C901813023
:1009600009F090C01092C9010E94F1002B013C01D6
:100970008091CA018093BB008091F1019091F201B6
:10098000A091F301B091F401892B8A2B8B2BA1F05C
:100990000E94F1002091F1013091F2014091F301A8
:1009A0005091F401641975098609970926173707CC
:1009B0004807590708F442C08091BC0083FDD8CF96
:1009C000B5ECB093BC000E94F1002B013C0180917A
:1009D000EF01813009F45AC08091EC018C1710F4BA
:1009E000C091EC01ABECB1E0E9EAF1E080E08C17FA
:1009F00051F19D9191938F5FFACF8091F101909188
:100A0000F201A091F301B091F401892B8A2B8B2B79
:100A100009F47DCF0E94F1002091F1013091F201A3
:100A20004091F3015091F401641975098609970901
:100A3000261737074807590708F069CF8091F0015A
:100A40000E946A02C0E01092A801C093A701C017DB
:100A5000110609F054C041018E0C9F1CE401CE0127
:100A6000881999098017910798F5D60111968D91EB
:100A70009C91DC01ED91FC910284F385E02D0995B8
:100A80008993EDCFE5EEE093BC009DCF8091F1011D
:100A90009091F201A091F301B091F401892B8A2B7E
:100AA0008B2B09F494CF0E94F1002091F101309139
:100AB000F2014091F3015091F4016419750986091E
:100AC0009709261737074807590708F080CFB6CF90
:100AD000E00EF11E07CF81E0DF91CF911F910F91C2
:100AE000FF90EF90DF90CF90BF90AF909F908F904E
:100AF0007F906F905F904F903F902F90089580E08F
:100B0000EBCFFC0101900020E9F73197AF01481BC2
:100B1000590BBC0189E192E00C94180185ED80939A
:100B2000BC008091F1019091F201A091F301B0918C
:100B3000F4010796A11DB11D23E0B695A7959795E1
:100B400087952A95D1F72091BC0024FD03C010920F
:100B5000EF0108954091F1015091F2016091F3018C
:100B60007091F401452B462B472B69F30097A105A3
:100B7000B10541F02AE22A95F1F700C00197A109D9
:100B8000B109E1CF8091F0010C946A021F920F929B
:100B90000FB60F9211242F933F938F939F93AF9390
:100BA000BF9380919F019091A001A091A101B0916C
:100BB000A20130919E0123E0230F2D3758F50196B5
:100BC000A11DB11D20939E0180939F019093A001D0
:100BD000A093A101B093A2018091A3019091A401DF
:100BE000A091A501B091A6010196A11DB11D809310
:100BF000A3019093A401A093A501B093A601BF9176
:100C0000AF919F918F913F912F910F900FBE0F90B9
:100C10001F90189526E8230F0296A11DB11DD2CF73
:100C20001F920F920FB60F9211242F933F934F9361
:100C30005F936F937F938F939F93AF93BF93EF9344
:100C4000FF9389E192E00E949601FF91EF91BF919D
:100C5000AF919F918F917F916F915F914F913F9154
:100C60002F910F900FBE0F901F9018951F920F920B
:100C70000FB60F9211242F938F939F93EF93FF93AF
:100C8000E0912902F0912A028081E0912F02F091F7
:100C9000300282FD1BC09081809132028F5F8F7382
:100CA00020913302821741F0E0913202F0E0E75EDA
:100CB000FD4F958F80933202FF91EF919F918F911D
:100CC0002F910F900FBE0F901F9018958081F4CF39
:100CD0001F920F920FB60F9211242F933F934F93B1
:100CE0005F936F937F938F939F93AF93BF93EF9394
:100CF000FF938091B900887F803609F44AC0F0F5EF
:100D0000883209F4A7C018F5803109F49BC0B8F403
:100D1000882309F4F9C0883009F494C0FF91EF9159
:100D2000BF91AF919F918F917F916F915F914F9103
:100D30003F912F910F900FBE0F901F901895883103
:100D400009F488C0803251F78093ED0114C08034DB
:100D500009F49DC040F48033B9F38833F9F68093E9
:100D6000ED0185ECB0C0803509F485C0883509F403
:100D700096C0883499F60E948E05D0CF883909F440
:100D80008CC038F5883729F050F4883611F0803758
:100D900029F683E08093EF011092970157C08838BD
:100DA00009F47BC0803919F0803809F0B7CF809101
:100DB0009701803208F071C0E091970181E08E0FB9
:100DC000809397018091BB00F0E0E958FE4F80834B
:100DD0003DC0803B39F0E0F4803A09F479C0883AAC
:100DE00009F09CCF84E08093EF011092760110927D
:100DF0007501E0919A01F0919B010995809175012F
:100E000081110FC081E0809375011092550109C0D6
:100E1000803C09F4A6CF883C09F4A3CF883B09F0B5
:100E20007DCFE091760181E08E0F80937601F0E036
:100E3000EB5AFE4F80818093BB00909176018091A8
:100E4000750129C08091CA018093BB0085EC809315
:100E5000BC0064CF9091EC018091EB01981758F59C
:100E6000E091EC0181E08E0F8093EC01F0E0E5531E
:100E7000FE4F8081E9CFE091EC0181E08E0F8093FD
:100E8000EC018091BB00F0E0E553FE4F8083909130
:100E9000EC018091EB019817C8F285E8D8CFE0917A
:100EA000EC0181E08E0F8093EC018091BB00F0E0BB
:100EB000E553FE4F80838091EE0181115CCF81E08C
:100EC0008093C90184EA8093BC001092EF0126CF81
:100ED00085EC8093BC001092EF01809197018032E5
:100EE00030F4E0919701F0E0E958FE4F10826091F4
:100EF000970170E0E0919801F091990187E791E006
:100F00000995109297010ACF1092ED0134CFE9E1D3
:100F1000F2E01382128288EE93E0A0E0B0E08483D6
:100F20009583A683B7832AE031E03183208325ECC3
:100F300030E03587248724EC30E03787268720ECA3
:100F400030E0318B208B21EC30E0338B228B22EC94
:100F500030E0358B248B26EC30E0378B268B118EDE
:100F6000128E138E148EE6EBF2E0138212828483CB
:100F70009583A683B7838CE191E091838083089564
:100F8000CF93DF93CDB7DEB7E1970FB6F894DEBF0E
:100F90000FBECDBF789484B5826084BD84B5816076
:100FA00084BD85B5826085BD85B5816085BD809134
:100FB0006E00816080936E001092810080918100AC
:100FC00082608093810080918100816080938100A4
:100FD000809180008160809380008091B100846066
:100FE0008093B1008091B00081608093B0008091C7
:100FF0007A00846080937A0080917A008260809386
:101000007A0080917A00816080937A0080917A00E2
:10101000806880937A001092C100E0912902F091DB
:101020002A0282E08083E0912502F091260210825C
:10103000E0912702F091280280E180831092310232
:10104000E0912D02F0912E0286E08083E0912B0248
:10105000F0912C02808180618083E0912B02F091DD
:101060002C02808188608083E0912B02F0912C0219
:10107000808180688083E0912B02F0912C02808136
:101080008F7D808380919C0190919D01009711F04C
:101090000E945C0C86E090E00E94C00B8C0188E608
:1010A000D8018C9386EB92E012969C938E931197C5
:1010B00013961C92139780E290E015969C938E9362
:1010C000149710939D0100939C011092A801109217
:1010D000A7011092F601109218020E944C0286E1BC
:1010E00091E090939B0180939A0187E191E0909326
:1010F000990180939801FF24F394F801F382C801C9
:101100000E942204E82E811109C08AE291E00E9427
:10111000810581E391E00E948105FFCF9E012F5F51
:101120003F4F690186E0D9011D928A95E9F788E56C
:101130008A8389E58B8383E28C8381E38E8382E1DA
:101140008F8385E2888780919C0190919D01FC01AD
:10115000248135812830310578F02081F092F50125
:10116000209317021092F6011092180221E048E035
:1011700050E0B6010E9404048AE28AA388E08983D1
:1011800000919C0110919D01F80184819581029745
:1011900008F181819281208131E03093F501209323
:1011A00017021092F60110921802DC01ED91FC91E9
:1011B0000280F381E02D41E050E0B60109950197EE
:1011C00049F421E041E050E0BE016E5D7F4FC8016F
:1011D0000E94040484E391E00E94810588E08983F1
:1011E00000919C0110919D01F80184819581892BCA
:1011F000D9F0808191E09093F501809317021092CD
:10120000F6011092180220E041E050E0B601C8015A
:101210000E940404882341F041E050E0BE016D5D6E
:101220007F4FC8010E945B042BA130E050E040E0FA
:1012300019A28E010F5D1F4FAAE08A2E912CA12CBE
:10124000B12CCA01B901A50194010E94980B605DFF
:10125000D8016E938D01211531054105510589F79E
:10126000109719F0CD010E94810581E391E00E9461
:101270008105FDE47F2EFE0131966F0119820091F8
:101280009C0110919D01D80114968D919C91159708
:10129000892BC9F08C9191E09093F501809317020E
:1012A0001092F6011092180220E041E050E0B601E1
:1012B000C8010E940404882331F047E050E0B601E1
:1012C000C8010E945B0429812F77822F90E034E0CF
:1012D000959587953A95E1F7982F990F990F682E74
:1012E000691A660C620E2A81822F90E044E095957F
:1012F00087954A95E1F7982F990F990F482E491A2B
:10130000440C420E2B81822F90E054E095958795F6
:101310005A95E1F7982F990F990F582E591A550C95
:10132000520E2D81822F90E064E0959587956A9505
:10133000E1F7982F990F990FF82EF91AFF0CF20E7A
:101340002E81822F90E074E0959587957A95E1F74C
:10135000982F990F990F082F091B000F020F2F814B
:10136000822F90E0E4E095958795EA95E1F7982F34
:10137000990F990F182F191B110F120FA12EB12CB5
:1013800084E1EFE3F1E0D60101900D928A95E1F757
:1013900069E371E0C6010E94E50C892B41F46CE31E
:1013A00071E0C6010E94E50C892B09F4CBC05520E1
:1013B00009F4CCC0BCE05B1609F4CCC0EBE09E2C79
:1013C000852D40E0E51518F484EF850D41E02AE015
:1013D000622F0E94780B805D8DA3905D9EA3852D6A
:1013E0000E94780B70E3872E880E905D9CA3842D5D
:1013F0000E94780B805D8FA3905D98A7862D0E9438
:10140000780B805D89A7905D9AA78F2D0E94780B3D
:10141000805D8BA7E0E34E2E490E6DE671E0A69E3F
:10142000C001A79E900DB69E900D1124059673E005
:10143000A70EB11CB694A794B694A7941C012A0CCD
:101440003B1C802F622F0E94780B805D88AB905DE3
:1014500099ABA02FA150BB0BCD015D01AA0CBB1C09
:10146000A80EB91EF501ED58FF4F5F01BF016F5F78
:101470007F4F7DA76CA7CF0102969FA78EA7812FD4
:10148000622F0E94780B392F0E94780BB0E36B2EED
:10149000690E80E3582E530E96011370D6010D90FD
:1014A0000020E9F7CD018C199D090297B9016C194B
:1014B0007D096817790708F0E2C0F9018081883654
:1014C00041F48181883629F4911047C080826CA153
:1014D0006183D9018C918D3651F411968C911197BD
:1014E0008D3629F4EFA1EC93F8A51196FC93D90160
:1014F0008C91833751F411968C911197833729F48D
:10150000E9A5EC93FAA51196FC93D9018C9184344A
:1015100009F04AC011968C911197843409F044C0A7
:1015200012968C91843409F088C08F2D90E0E8E603
:10153000F0E051E05017C0F46491860F911D5F5F99
:101540003196F8CF912C40E080E041CF9E2C40E0D6
:101550008CE03DCF9E2C41E0FBCFEDA1D901EC9377
:10156000FEA11196FC93B5CF033018F0111101C004
:101570000196820D931D67E070E00E94840BFC01D0
:10158000EE0FFF1F8E0F9F1F88569F4FFC01549137
:10159000D9015C933196E4911196EC9311970296E0
:1015A000FC01849112968C93D9018C918D34C9F4ED
:1015B00011968C9111978D34A1F412968C911297FB
:1015C0008D3409F03FC0F50184918C93ECA5FDA505
:1015D000849111968C931197EEA5FFA58491129694
:1015E0008C93D9018C918935D1F411968C911197F6
:1015F0008935A9F412968C911297893549F513967D
:101600008C911397893521F5E2E3EC93F0E3119681
:10161000FC93119712966C92129713965C92F901B3
:1016200080818134E1F48181803521F44423A9F063
:10163000808371822F5F3F4F31CF6BA5F9016083AB
:101640004182B2CF68A9F901608379A97183C9CFBA
:10165000D9016C9211965C92E2CF7182EBCF813608
:1016600049F78181803731F7442321F080836DE68B
:101670006183E0CFEDE6D9011196EC93DBCFC60193
:101680000E94810581E391E00E9481050E94F100A2
:101690004B015C0188EE282E83E0382E412C512C22
:1016A0000E94F100681979098A099B09683E734014
:1016B00081059105A8F3F1E02F1A3108410851087E
:1016C00028EE820E23E0921EA11CB11C21143104CD
:1016D0004104510429F760E070E0672B09F4CECD96
:1016E0000E948201882309F4C9CD0E940000C3CD65
:1016F000991B79E004C0991F961708F0961B881F64
:101700007A95C9F780950895AA1BBB1B51E107C0C4
:10171000AA1FBB1FA617B70710F0A61BB70B881F81
:10172000991F5A95A9F780959095BC01CD01089510
:10173000A1E21A2EAA1BBB1BFD010DC0AA1FBB1FD5
:10174000EE1FFF1FA217B307E407F50720F0A21B47
:10175000B30BE40BF50B661F771F881F991F1A94B4
:1017600069F760957095809590959B01AC01BD01DE
:10177000CF010895EE0FFF1F0590F491E02D09941D
:101780000F931F93CF93DF938230910510F482E083
:1017900090E0E091C402F091C50230E020E0B0E0BA
:1017A000A0E0309799F42115310509F44AC0281BAF
:1017B000390B24303105D8F58A819B81611571057B
:1017C00089F1FB0193838283FE0111C04081518125
:1017D0000281138148175907E0F04817590799F417
:1017E000109761F012960C93129713961C933296F1
:1017F000CF01DF91CF911F910F9108950093C40203
:101800001093C502F4CF2115310551F0421753074B
:1018100038F0A901DB019A01BD01DF01F801C1CF58
:10182000EF01F9CF9093C5028093C402CDCFFE01A2
:10183000E20FF31F8193919322503109398328835A
:10184000D7CF2091C2023091C302232B41F42091C3
:101850000201309103013093C3022093C202209110
:101860000001309101012115310541F42DB73EB73A
:101870004091040150910501241B350BE091C202F7
:10188000F091C302E217F307A0F42E1B3F0B2817B9
:10189000390778F0AC014E5F5F4F2417350748F0E9
:1018A0004E0F5F1F5093C3024093C20281939193E6
:1018B0009FCFF0E0E0E09CCFCF93DF930097E9F07B
:1018C000FC01329713821282A091C402B091C5022A
:1018D000ED0130E020E01097A1F420813181820FEA
:1018E000931F2091C2023091C3022817390709F0D3
:1018F00061C0F093C302E093C202DF91CF910895DB
:10190000EA01CE17DF07E8F54A815B819E014115A8
:101910005105B1F7E901FB83EA8349915991C40F5D
:10192000D51FEC17FD0761F4808191810296840F29
:10193000951FE90199838883828193819B838A83A0
:10194000F0E0E0E012968D919C9113970097B9F525
:101950002D913C911197CD010296820F931F2091FA
:10196000C2023091C3022817390739F6309751F572
:101970001092C5021092C402B093C302A093C20297
:10198000BCCFD383C28340815181840F951FC81778
:10199000D90761F44E5F5F4F88819981480F591FC5
:1019A000518340838A819B819383828321153105F2
:1019B00009F0B0CFF093C502E093C4029ECFFD01C1
:1019C000DC01C0CF13821282D7CFFB015191552386
:1019D000A9F0BF01DC014D9145174111E1F759F420
:1019E000CD010190002049F04D9140154111C9F3FE
:1019F000FB014111EFCF81E090E001970895F89449
:021A0000FFCF16
:101A02000000C602200000000000B80118014501D4
:101A1200050276015401680100000000D203A5030B
:101A220001047B039E038B037C036E6F207274633D
:101A3200000D0A0072616D3D006170004150005955
:101A42005959592D4D4D2D44442068683A6D6D3ACF
:041A520073730000AA
:00000001FF
