:100000000C9458000C9480000C9480000C94800098
:100010000C9480000C9480000C9480000C94800060
:100020000C9480000C9480000C9480000C94800050
:100030000C9480000C9480000C9480000C94800040
:100040000C94EB040C9480000C9480000C948000C1
:100050000C9480000C9480000C9480000C94800020
:100060000C94CC030C9480000000000025002800B4
:100070002B00040404040404040402020202020229
:10008000030303030303010204081020408001025C
:1000900004081020010204081020000000080002DB
:1000A0000100000304070000000000000000350507
:1000B00011241FBECFEFD8E0DEBFCDBF11E0A0E01E
:1000C000B1E0E8E9FCE002C005900D92A633B1076B
:1000D000D9F722E0A6E3B1E001C01D92A231B20738
:1000E000E1F710E0C8E5D0E004C02197FE010E94CE
:1000F0004406C735D107C9F70E9456050C944A0635
:100100000C94000090E0FC01E656FF4F2491FC01A6
:10011000EA57FF4F3491FC01EE58FF4FE491EE2374
:10012000C9F0222339F0233001F1A8F4213019F16C
:10013000223029F1F0E0EE0FFF1FE859FF4FA591A3
:10014000B4918FB7F894EC91611126C030953E239D
:100150003C938FBF08952730A9F02830C9F0243090
:1001600049F7809180008F7D03C0809180008F7758
:1001700080938000DFCF84B58F7784BDDBCF84B5DB
:100180008F7DFBCF8091B0008F778093B000D2CF6E
:100190008091B0008F7DF9CF3E2BDACF2091AD0159
:1001A000260F3327331F21323105ECF42091D30180
:1001B000FC0190E080E0243069F082E00895A09195
:1001C000AD012191AC0145575E4FA40FB52FB11D74
:1001D0002C930196861798F38091AD01680F609378
:1001E000AD0180E0089581E008951092D30181E08F
:1001F0008093D5011092D40161E082E10E948200D7
:1002000061E083E10E948200E9EBF0E080818E7F73
:10021000808380818D7F808388E48093B80085E42B
:100220008093BC000895CF93DF9391E090938A016F
:100230008823B9F0C091B800D091BA008091BC0079
:100240008A7B8093BC0060E082E10E94820060E0D3
:1002500083E10E9482000E94F500D093BA00C0930F
:10026000B800DF91CF910895089508950895E09121
:10027000820180918101E81730F4F0E0EF59FE4FE0
:10028000808190E008958FEF9FEF08959091820113
:10029000809181012FEF3FEF981748F4E92FF0E0AC
:1002A000EF59FE4F208130E09F5F90938201C9019A
:1002B00008958091810190918201891B990B089585
:1002C000CF92DF92EF92FF920F931F93CF93DF9322
:1002D0007C01CB018A0120916001222389F0EB018E
:1002E0006B01C40ED51ECC15DD0569F06991D701EF
:1002F000ED91FC910190F081E02DC7010995F3CFBC
:10030000642F0E94CE00C801DF91CF911F910F9101
:10031000FF90EF90DF90CF900895CF93DF931F92DF
:10032000CDB7DEB76983209160012223F9F02091D7
:100330008301203258F021E030E0FC013383228336
:1003400090E080E00F90DF91CF910895809184013B
:10035000E82FF0E0E05CFE4F998190838F5F8093FF
:1003600084018093830181E090E0ECCF61E0CE01D5
:1003700001960E94CE00F7CF3FB7F89480913C01E0
:1003800090913D01A0913E01B0913F0126B5A89BFF
:1003900005C02F3F19F00196A11DB11D3FBFBA2F17
:1003A000A92F982F8827BC01CD01620F711D811DD7
:1003B000911D42E0660F771F881F991F4A95D1F75C
:1003C00008958F929F92AF92BF92CF92DF92EF9259
:1003D000FF924B015C010E94BC016B017C010E94F9
:1003E000BC016C197D098E099F09683E7340810527
:1003F0009105A8F321E0821A9108A108B10888EEBE
:10040000C80E83E0D81EE11CF11C81149104A104E4
:10041000B10429F7FF90EF90DF90CF90BF90AF909D
:100420009F908F900895AF92BF92CF92DF92EF92FC
:10043000FF920F931F93CF93DF936C017B018B018E
:10044000040F151FEB015E01AE18BF08C017D107DE
:1004500059F06991D601ED91FC910190F081E02D68
:10046000C6010995892B79F7C501DF91CF911F91BD
:100470000F91FF90EF90DF90CF90BF90AF900895D5
:10048000CF92DF92EF92FF920F931F93CF93DF9360
:10049000FC01C48121E020936001C09336011092D9
:1004A0008401109283018485682B89EF91E00E947A
:1004B0008D01D0918301D13208F092C00E94BC011D
:1004C0006B017C018091D301811165C082E0809332
:1004D000D30181E08093D5018FEF8093D2011092F8
:1004E000F701D093F601A0E4B1E0E6EDF1E080E0A1
:1004F000D81385C01092F8018091F801CC0FC82B59
:10050000C093F8018091D401813009F07CC0109231
:10051000D4010E94BC016B017C018091F8018093A1
:10052000BB008091860190918701A0918801B091D4
:100530008901892B8A2B8B2B99F00E94BC01009199
:1005400086011091870120918801309189016C19F1
:100550007D098E099F090617170728073907E0F15B
:100560008091BC0083FDD9CF85EC8093BC000E94B4
:10057000BC016B017C018091D301823009F445C03C
:100580008091D2018F3F61F18091D201803241F19F
:100590008091D20125C08091860190918701A09120
:1005A0008801B0918901892B8A2B8B2B09F48ACF82
:1005B0000E94BC0100918601109187012091880161
:1005C000309189016C197D098E099F09061717075B
:1005D0002807390708F076CF809185010E94130122
:1005E000109284011092830110926001DF91CF91EB
:1005F0001F910F91FF90EF90DF90CF9008959D9104
:1006000091938F5F75CF85EEB0CF809186019091E9
:100610008701A0918801B0918901892B8A2B8B2BAE
:1006200009F4A9CF0E94BC010091860110918701B5
:1006300020918801309189016C197D098E099F09EB
:10064000061717072807390708F095CFC5CF089573
:1006500090E080E0089585ED8093BC008091860154
:1006600090918701A0918801B09189010796A11D01
:10067000B11D23E0B695A795979587952A95D1F753
:100680002091BC0024FD03C01092D3010895409135
:100690008601509187016091880170918901452BF5
:1006A000462B472B69F30097A105B10541F02AE2DB
:1006B0002A95F1F700C00197A109B109E1CF809116
:1006C00085010C9413010F931F93CF938C01C62FB8
:1006D0000E9440026C2F6460C8010E9440026C2F8F
:1006E0006B7FC8010E94400283EC90E00197F1F714
:1006F000CF911F910F9108950F931F93CF93DF9385
:100700008C01D62FC42F607F642B0E94630380E18D
:10071000D89FB00111246C2BC801DF91CF911F919C
:100720000F910C946303CF93DF93CDB7DEB7289777
:100730000FB6F894DEBF0FBECDBF98E0E0E0F1E069
:10074000DE01119601900D929A95E1F790910D02BC
:10075000961708F46FEF262F30E0220F331F41E089
:1007600050E04C0F5D1F240F351FF9016081680FA9
:10077000606840E085E092E028960FB6F894DEBF0E
:100780000FBECDBFDF91CF910C947C0341E00E945E
:100790007C0381E090E008951F920F920FB60F92B4
:1007A00011242F933F934F935F936F937F938F9376
:1007B0009F93AF93BF93EF93FF938091B900887F8E
:1007C000803609F44AC0F0F5883209F4A7C018F55C
:1007D000803109F49BC0B8F4882309F4F9C088304B
:1007E00009F494C0FF91EF91BF91AF919F918F91C8
:1007F0007F916F915F914F913F912F910F900FBE1D
:100800000F901F901895883109F488C0803251F7F5
:100810008093D20114C0803409F49DC040F4803329
:10082000B9F38833F9F68093D20185ECB0C08035F6
:1008300009F485C0883509F496C0883499F60E9479
:100840002B03D0CF883909F48CC038F5883729F0CC
:1008500050F4883611F0803729F683E08093D30175
:100860001092D10157C0883809F47BC0803919F043
:10087000803809F0B7CF8091D101803208F071C083
:10088000E091D10181E08E0F8093D1018091BB0076
:10089000F0E0EF54FE4F80833DC0803B39F0E0F440
:1008A000803A09F479C0883A09F09CCF84E08093BB
:1008B000D3011092AE011092AD01E091AB01F09125
:1008C000AC0109958091AD0181110FC081E0809349
:1008D000AD0110928B0109C0803C09F4A6CF883C81
:1008E00009F4A3CF883B09F07DCFE091AE0181E010
:1008F0008E0F8093AE01F0E0E557FE4F808180932C
:10090000BB009091AE018091AD0129C08091F801AA
:100910008093BB0085EC8093BC0064CF9091F7017D
:100920008091F601981758F5E091F70181E08E0F5C
:100930008093F701F0E0EA52FE4F8081E9CFE09129
:10094000F70181E08E0F8093F7018091BB00F0E00A
:10095000EA52FE4F80839091F7018091F60198173B
:10096000C8F285E8D8CFE091F70181E08E0F80933F
:10097000F7018091BB00F0E0EA52FE4F8083809146
:10098000D50181115CCF81E08093D40184EA80930A
:10099000BC001092D30126CF85EC8093BC0010924E
:1009A000D3018091D101803230F4E091D101F0E0A7
:1009B000EF54FE4F10826091D10170E0E091AF01E1
:1009C000F091B00181EB91E009951092D1010ACF2D
:1009D0001092D20134CF1F920F920FB60F921124B2
:1009E0002F933F938F939F93AF93BF938091380141
:1009F00090913901A0913A01B0913B0130913701BA
:100A000023E0230F2D3758F50196A11DB11D20932A
:100A100037018093380190933901A0933A01B09344
:100A20003B0180913C0190913D01A0913E01B0912C
:100A30003F010196A11DB11D80933C0190933D01A2
:100A4000A0933E01B0933F01BF91AF919F918F91D1
:100A50003F912F910F900FBE0F901F90189526E891
:100A6000230F0296A11DB11DD2CFE9EFF1E0138251
:100A7000128288EE93E0A0E0B0E084839583A683A1
:100A8000B7838CE091E091838083E5E0F2E013820C
:100A900012828EE191E091838083118687E28483C4
:100AA00080E1828782E0838714860895789484B5F4
:100AB000826084BD84B5816084BD85B5826085BD5A
:100AC00085B5816085BD80916E00816080936E00E8
:100AD00010928100809181008260809381008091DA
:100AE000810081608093810080918000816080938B
:100AF00080008091B10084608093B1008091B0004B
:100B000081608093B00080917A00846080937A0045
:100B100080917A00826080937A0080917A0081606F
:100B200080937A0080917A00806880937A00109296
:100B3000C1001092820110928101109284011092E2
:100B400083010E94F50084E391E09093AC018093CF
:100B5000AB0185E391E09093B0018093AF011092D7
:100B60000A0280911002823018F098E090930A02F5
:100B700080930D0262E370E080E090E00E94E1016A
:100B80006091110285E092E00E94400268EE73E0FD
:100B900080E090E00E94E10160E385E092E00E9445
:100BA0006303CBE4D6E4CE010197F1F760E385E07F
:100BB00092E00E9463032197F1F760E385E092E001
:100BC0000E94630383E592E00197F1F760E285E01C
:100BD00092E00E94630360910A02606240E085E057
:100BE00092E00E947C0384E080930B0240E06CE082
:100BF00085E092E00E947C0340E061E085E092E0C5
:100C00000E947C038BE39FE10197F1F780910E0234
:100C1000882321F060E080E00E94930382E08093CB
:100C20000C0240E066E085E092E00E947C0340E038
:100C300062E085E092E00E947C038BE39FE10197F4
:100C4000F1F788E08093110260E085E092E00E9475
:100C5000400249E050E066E271E085E092E00E94E7
:100C6000130261E082E00E94930344E050E060E3FD
:100C700071E085E092E00E941302C0E0D0E020978E
:100C8000F1F30E940000FBCFEE0FFF1F0590F491DF
:080C9000E02D0994F894FFCF58
:100C98000000400014005400000000008D016001B5
:100CA8002803360159014601370100000000C60338
:100CB80013022803270349324320776F726B7300AE
:060CC80030783237000015
:00000001FF
