:100000000C9462000C948A000C948A000C948A0070
:100010000C948A000C948A000C948A000C948A0038
:100020000C948A000C948A000C948A000C948A0028
:100030000C948A000C948A000C948A000C948A0018
:100040000C94E3040C948A000C9453050C942D0535
:100050000C948A000C948A000C948A000C948A00F8
:100060000C948A000C948A000000000024002700F1
:100070002A0000000000250028002B0000000008D6
:10008000000201000003040700000000000000005F
:1000900000000000230026002900040404040404D6
:1000A0000404020202020202030303030303010227
:1000B00004081020408001020408102001020408F6
:1000C0001020850511241FBECFEFD8E0DEBFCDBFC5
:1000D00011E0A0E0B1E0EAE9F3E102C005900D9281
:1000E000AC32B107D9F721E0ACE2B1E001C01D921A
:1000F000A53EB207E1F710E0C2E6D0E004C02197C8
:10010000FE010E948907C136D107C9F70E94D205B6
:100110000C94CB090C940000CF92DF92EF92FF92E7
:10012000CF93DF93B091D901A0E08111AB2F8091E3
:10013000DA0190E0880F991FAC0140575F4FC090E3
:10014000DF01D090E001E090E101F090E20130E0C9
:1001500020E0FA01C591D491E881B90190E080E0F6
:10016000EB23EA130AC02F5F3F4F6C157D058E0508
:100170009F0578F36FEF7FEFCB01DF91CF91FF9079
:10018000EF90DF90CF900895CF93DF9390E0FC0144
:10019000E255FF4F249186569F4FFC01849188239E
:1001A000D1F090E0880F991FFC01E859FF4FA5910D
:1001B000B491FC01EE58FF4FC591D491623071F4B7
:1001C0009FB7F8943C91822F809583238C93E8818C
:1001D0002E2B28839FBFDF91CF9108958FB7F8947E
:1001E000EC912E2B2C938FBFF6CF3FB7F8948091D4
:1001F0002D0190912E01A0912F01B091300126B5D3
:10020000A89B05C02F3F19F00196A11DB11D3FBF4E
:10021000BA2FA92F982F8827BC01CD01620F711D1D
:10022000811D911D42E0660F771F881F991F4A9517
:10023000D1F708958F929F92AF92BF92CF92DF92A3
:10024000EF92FF924B015C010E94F5006B017C0173
:100250000E94F5006C197D098E099F09683E734064
:1002600081059105A8F321E0821A9108A108B1083F
:1002700088EEC80E83E0D81EE11CF11C81149104A5
:10028000A104B10429F7FF90EF90DF90CF90BF90C9
:10029000AF909F908F9008958F929F92AF92BF9250
:1002A000EF92FF920F931F93CF93DF93CDB7DEB7FB
:1002B000C054D1400FB6F894DEBF0FBECDBF2FB7EC
:1002C000F8948091310190913201A0913301B09165
:1002D00034012FBF4091DB015091DC016091DD01C1
:1002E0007091DE018C019D01041B150B260B370B51
:1002F000B901A801403D574061057105A0F4809106
:10030000E301C05CDE4F0FB6F894DEBF0FBECDBF79
:10031000DF91CF911F910F91FF90EF90BF90AF9021
:100320009F908F9008958093DB019093DC01A093C0
:10033000DD01B093DE011092D6011092D50110922A
:10034000D4011092D3011092D20162E08091D701C2
:100350000E94C40061E070E080E090E00E941A0119
:1003600061E08091D7010E94C4008091D70190E0A4
:10037000FC01E458FF4F2491FC01E255FF4F3491FA
:10038000FC01E656FF4FE491EE23D9F0222359F009
:10039000233009F44BC008F03EC0213009F44CC0B2
:1003A000223009F44DC0F0E0EE0FFF1FEE58FF4F72
:1003B000A591B4918FB7F894EC9130953E233C937E
:1003C0008FBF8091D8018551823008F046C08BE202
:1003D00091E10197F1F762E08091D7010E94C4009A
:1003E0008091E40190E08230910538F0880F991FE8
:1003F000880F991F05970197F1F7F89480E00E9404
:100400008C006F3F7F4F8F4F9F4F71F51092E3012C
:10041000789480E076CF2730B1F02830D1F02430C6
:1004200009F0C1CF809180008F7D03C08091800052
:100430008F7780938000B7CF84B58F7784BDB3CF9B
:1004400084B58F7DFBCF8091B0008F778093B00013
:10045000AACF8091B0008F7DF9CF64E170E080E099
:1004600090E00E941A01B7CF81E00E948C006F3F9C
:100470007F4F8F4F9F4F51F2CE0101967C015E015D
:100480009FEBA91A9EEFB90A870180E00E948C00B9
:10049000F801608371838283938381E00E948C00E2
:1004A000F8016483758386839783085F1F4FA016C6
:1004B000B10659F7789430E020E0F7018080918010
:1004C000A280B3804481558166817781FFEF8F16CA
:1004D0009F06AF06BF0631F04F3F0FEF5007600792
:1004E000700719F41092E30194CFF90183E0F595B8
:1004F000E7958A95E1F7EE52FE4F8081880F8416CA
:100500009506A606B70618F180832F5F3F4F18E0C7
:10051000E10EF11C2832310581F64091D60120917F
:10052000D2018091D301280F3327331F8091D4014A
:10053000280F311D8091D501820F932F911D99278E
:100540004817190679F681E08093E301DACE8160DD
:10055000DBCFAF92BF92CF92DF92EF92FF920F93D9
:100560001F93CF93DF936C017B018B01040F151F49
:10057000EB015E01AE18BF08C017D10759F06991B1
:10058000D601ED91FC910190F081E02DC601099515
:10059000892B79F7C501DF91CF911F910F91FF90C2
:1005A000EF90DF90CF90BF90AF900895FC01538DF6
:1005B000448D252F30E0842F90E0821B930B54173D
:1005C00010F0CF96089501970895FC01918D828DCA
:1005D000981761F0A28DAE0FBF2FB11D5D968C9163
:1005E000928D9F5F9F73928F90E008958FEF9FEFA2
:1005F0000895FC01918D828D981731F0828DE80F5E
:10060000F11D858D90E008958FEF9FEF0895FC0117
:10061000918D228D892F90E0805C9F4F821B9109E4
:100620008F739927089585E391E00E94070321E0E5
:10063000892B09F420E0822F089580E090E0892B37
:1006400029F00E94130381110C9400000895FC010D
:10065000A48DA80FB92FB11DA35ABF4F2C91848D23
:1006600090E001968F739927848FA689B7892C9380
:10067000A089B1898C91837080648C93938D848DD3
:10068000981306C00288F389E02D80818F7D8083D6
:100690000895EF92FF920F931F93CF93DF93EC0196
:1006A00081E0888F9B8D8C8D98131AC0E889F98919
:1006B000808185FF15C09FB7F894EE89FF8960831C
:1006C000E889F98980818370806480839FBF81E09D
:1006D00090E0DF91CF911F910F91FF90EF900895DF
:1006E000F62E0B8D10E00F5F1F4F0F731127E02EBA
:1006F0008C8D8E110CC00FB607FCFACFE889F989F2
:10070000808185FFF5CFCE010E942703F1CFEB8DCD
:10071000EC0FFD2FF11DE35AFF4FF0829FB7F894C5
:100720000B8FEA89FB8980818062CFCFCF93DF93E3
:10073000EC01888D8823B9F0AA89BB89E889F989F9
:100740008C9185FD03C0808186FD0DC00FB607FC2E
:10075000F7CF8C9185FFF2CF808185FFEDCFCE0161
:100760000E942703E9CFDF91CF910895FC0101900A
:100770000020E9F73197AF01481B590BBC0185E315
:1007800091E00C94A9028F929F92AF92BF920F9327
:100790001F93CF93DF93CDB7DEB7A1970FB6F89431
:1007A000DEBF0FBECDBF19A2423008F44AE08E0171
:1007B0000F5D1F4F842E912CB12CA12CA50194010B
:1007C0000E946707E62FB901CA01EA30F4F4E05D40
:1007D000D801EE938D01232B242B252B79F790E064
:1007E00080E0109719F0CD010E94B603A1960FB6D4
:1007F000F894DEBF0FBECDBFDF91CF911F910F9157
:10080000BF90AF909F908F900895E95CE1CF4F9299
:100810005F926F927F928F929F92AF92BF92CF9290
:10082000DF92EF92FF920F931F93CF936B017C01A6
:10083000742EAC019B010E94C609882399F082E1C5
:1008400091E0CF911F910F91FF90EF90DF90CF90AB
:10085000BF90AF909F908F907F906F905F904F90E0
:100860000C94B60346015701E894B7F82FEF3FEF19
:100870004FE75FE7C501B4010E94C60981110DC0B1
:100880002FEF3FEF4FE75FE7C501B4010E94FC0780
:1008900018161CF486E191E0D4CF2FEF3FEF4FE71D
:1008A0005FE4C701B6010E94540918161CF48AE1DE
:1008B00091E0C7CF2FEF3FEF4FE75FECC701B601E5
:1008C0000E94FC0787FDF3CF20E030E0A901C701BB
:1008D000B6010E94FC0710E000E087FF0AC06DE24D
:1008E00085E391E00E9449038C01F7FAF094F7F850
:1008F000F094C0E060E070E080E09FE37C1641F09F
:1009000020E030E040E251E40E940108CF5FF6CFE2
:10091000A70196010E9490072B013C010E947308D9
:100920004B015C014AE00E94C3037C01E00EF11E12
:10093000CC23C1F1C501B4010E94A2089B01AC0106
:10094000C301B2010E948F074B015C016EE285E397
:1009500091E00E944903E80EF91EC15018F120E011
:1009600030E040E251E4C501B4010E9459092B0175
:100970003C010E9473084B01B12CA12C4AE0C50137
:10098000B4010E94C303E80EF91EC501B4010E9420
:10099000A2089B01AC01C301B2010E948F074B0169
:1009A0005C01DBCFC701CF911F910F91FF90EF90BA
:1009B000DF90CF90BF90AF909F908F907F906F907F
:1009C0005F904F9008951F920F920FB60F921124CF
:1009D0002F933F938F939F93AF93BF938091310158
:1009E00090913201A0913301B091340130912C01EA
:1009F00023E0230F2D3758F50196A11DB11D20933B
:100A00002C018093310190933201A0933301B09374
:100A1000340180912D0190912E01A0912F01B09170
:100A200030010196A11DB11D80932D0190932E01DF
:100A3000A0932F01B0933001BF91AF919F918F91FF
:100A40003F912F910F900FBE0F901F90189526E8A1
:100A5000230F0296A11DB11DD2CF1F920F920FB688
:100A60000F9211242F933F934F935F936F937F9334
:100A70008F939F93AF93BF93EF93FF9385E391E0A1
:100A80000E942703FF91EF91BF91AF919F918F91AA
:100A90007F916F915F914F913F912F910F900FBE7A
:100AA0000F901F9018951F920F920FB60F9211245E
:100AB0002F938F939F93EF93FF93E0914501F091D4
:100AC00046018081E0914B01F0914C0182FD1BC0F9
:100AD000908180914E018F5F8F7320914F0182171B
:100AE00041F0E0914E01F0E0EB5CFE4F958F80937A
:100AF0004E01FF91EF919F918F912F910F900FBE1B
:100B00000F901F9018958081F4CFE5E3F1E01382F8
:100B1000128288EE93E0A0E0B0E084839583A68300
:100B2000B78384E091E09183808385EC90E09587A2
:100B3000848784EC90E09787868780EC90E0918BA7
:100B4000808B81EC90E0938B828B82EC90E0958B94
:100B5000848B86EC90E0978B868B118E128E138E91
:100B6000148EA2EDB1E082E015968C93159786E184
:100B700016968C931697E0EBF0E0E4911796EC93C1
:100B80001797ECE9F0E0E4911896EC93189740E899
:100B90005EE360E070E01D964D935D936D937C93F2
:100BA00050970895789484B5826084BD84B581603F
:100BB00084BD85B5826085BD85B5816085BD809128
:100BC0006E00816080936E001092810080918100A0
:100BD0008260809381008091810081608093810098
:100BE000809180008160809380008091B10084605A
:100BF0008093B1008091B00081608093B0008091BB
:100C00007A00846080937A0080917A008260809379
:100C10007A0080917A00816080937A0080917A00D6
:100C2000806880937A001092C100E0914501F091B4
:100C3000460182E08083E0914101F09142011082FF
:100C4000E0914301F091440180E1808310924D01D5
:100C5000E0914901F0914A0186E08083E0914701EB
:100C6000F0914801808180618083E0914701F0919B
:100C70004801808188608083E0914701F0914801BC
:100C8000808180688083E0914701F09148018081F4
:100C90008F7D808362E08091D7010E94C4002FB7CE
:100CA000F8948091310190913201A0913301B0917B
:100CB00034012FBF805D9740A109B1098093DB010A
:100CC0009093DC01A093DD01B093DE0187E3809374
:100CD000E401C0E0D0E064E378E080E090E00E94CE
:100CE0001A010E944C01882349F08091D8018B3071
:100CF00028F08D3050F085518230C8F1812C912C34
:100D000020ECA22E2FE7B22E1EC06091D30170E01E
:100D100090E080E00E94A4082DEC3CEC4CEC5DE3FC
:100D20000E9459096B017C016091D20170E090E052
:100D300080E00E94A4089B01AC01C701B6010E949B
:100D400090074B015C010E944C01882309F474C098
:100D50008091D8018C3009F482C0D8F48B3091F1A5
:100D6000C12CD12C80ECE82E8FE7F82E55C0609175
:100D7000D2017091D30176276727762790E080E033
:100D80000E94A2082DEC3CEC4CEC5DE30E9459095A
:100D9000D8CF8551823020F71091D401612F70E0B7
:100DA000762F662766277F778091D501682B90E0A4
:100DB00080E00E94A2082DEC3CEC4CEC5DE30E942C
:100DC000590969C06091D40170E090E080E00E9410
:100DD000A2086B017C011091D50117FF0AC0AC017C
:100DE0009B0160E070E080E89FEB0E948F076B0141
:100DF0007C011F70612F70E090E080E00E94A408E9
:100E00002DEC3CEC4CEC5DE30E945909A7019601E6
:100E10000E9490076B017C01A5019401C501B401FA
:100E20000E94C609811108C0A7019601C701B60139
:100E30000E94C6098823C1F18EE191E00E94B603A9
:100E400082E291E00E94B603209709F444CF0E9409
:100E50001303882309F43FCF0E9400003CCF109178
:100E6000D401612F70E090E080E00E94A2086B0145
:100E70007C016091D5016F7070E090E080E00E948D
:100E8000A4082DEC3CEC4CEC5DE30E945909A70151
:100E900096010E9490076B017C0117FFBDCFF7FA06
:100EA000F094F7F8F094B8CF85E291E00E94B60391
:100EB00041E0C701B6010E94070488E291E00E9468
:100EC000B60341E0C501B4010E940704B9CFA1E215
:100ED0001A2EAA1BBB1BFD010DC0AA1FBB1FEE1FB4
:100EE000FF1FA217B307E407F50720F0A21BB30BFF
:100EF000E40BF50B661F771F881F991F1A9469F77B
:100F000060957095809590959B01AC01BD01CF01D6
:100F10000895EE0FFF1F0590F491E02D09945058AD
:100F2000BB27AA270E94A7070C941A090E940C0944
:100F300038F00E94130920F039F49F3F19F426F489
:100F40000C9409090EF4E095E7FB0C940309E92FD2
:100F50000E942B0958F3BA17620773078407950795
:100F600020F079F4A6F50C944D090EF4E0950B2EC3
:100F7000BA2FA02D0B01B90190010C01CA01A001EB
:100F80001124FF27591B99F0593F50F4503E68F146
:100F90001A16F040A22F232F342F4427585FF3CF87
:100FA000469537952795A795F0405395C9F77EF458
:100FB0001F16BA0B620B730B840BBAF09150A1F0A1
:100FC000FF0FBB1F661F771F881FC2F70EC0BA0F27
:100FD000621F731F841F48F4879577956795B795AF
:100FE000F7959E3F08F0B0CF9395880F08F09927AA
:100FF000EE0F9795879508950E94DF0808F481E029
:1010000008950E9415080C941A090E94130958F0BB
:101010000E940C0940F029F45F3F29F00C94030969
:1010200051110C944E090C9409090E942B0968F384
:101030009923B1F3552391F3951B550BBB27AA2791
:1010400062177307840738F09F5F5F4F220F331FCB
:10105000441FAA1FA9F335D00E2E3AF0E0E832D093
:1010600091505040E695001CCAF72BD0FE2F29D096
:10107000660F771F881FBB1F261737074807AB0768
:10108000B0E809F0BB0B802DBF01FF2793585F4FDD
:101090003AF09E3F510578F00C9403090C944E09E8
:1010A0005F3FE4F3983ED4F3869577956795B795BF
:1010B000F7959F5FC9F7880F911D9695879597F9CA
:1010C0000895E1E0660F771F881FBB1F6217730743
:1010D0008407BA0720F0621B730B840BBA0BEE1F58
:1010E00088F7E09508950E94330988F09F5798F09B
:1010F000B92F9927B751B0F0E1F0660F771F881F1D
:10110000991F1AF0BA95C9F714C0B13091F00E9436
:101110004D09B1E008950C944D09672F782F882769
:10112000B85F39F0B93FCCF3869577956795B3955D
:10113000D9F73EF490958095709561957F4F8F4FCC
:101140009F4F0895E89409C097FB3EF490958095D1
:10115000709561957F4F8F4F9F4F9923A9F0F92F7D
:1011600096E9BB279395F695879577956795B795FB
:10117000F111F8CFFAF4BB0F11F460FF1BC06F5FE1
:101180007F4F8F4F9F4F16C0882311F096E911C0F3
:10119000772321F09EE8872F762F05C0662371F014
:1011A00096E8862F70E060E02AF09A95660F771F28
:1011B000881FDAF7880F9695879597F90895990F04
:1011C0000008550FAA0BE0E8FEEF16161706E80711
:1011D000F907C0F012161306E407F50798F0621B32
:1011E000730B840B950B39F40A2661F0232B242B07
:1011F000252B21F408950A2609F4A140A6958FEF26
:10120000811D811D089597F99F6780E870E060E077
:1012100008959FEF80EC089500240A94161617068F
:1012200018060906089500240A94121613061406D7
:1012300005060895092E0394000C11F4882352F03A
:10124000BB0F40F4BF2B11F460FF04C06F5F7F4FF2
:101250008F4F9F4F089557FD9058440F551F59F0D9
:101260005F3F71F04795880F97FB991F61F09F3F93
:1012700079F087950895121613061406551FF2CFBC
:101280004695F1DF08C0161617061806991FF1CF0C
:1012900086957105610508940895E894BB27662733
:1012A0007727CB0197F908950E94DF0808F48FEFA4
:1012B00008950E946C090C941A090E940C0938F0D8
:1012C0000E94130920F0952311F00C9403090C944B
:1012D000090911240C944E090E942B0970F3959F63
:1012E000C1F3950F50E0551F629FF001729FBB271D
:1012F000F00DB11D639FAA27F00DB11DAA1F649FB9
:101300006627B00DA11D661F829F2227B00DA11D6B
:10131000621F739FB00DA11D621F839FA00D611DF1
:10132000221F749F3327A00D611D231F849F600D12
:10133000211D822F762F6A2F11249F5750409AF03B
:10134000F1F088234AF0EE0FFF1FBB1F661F771FC7
:10135000881F91505040A9F79E3F510580F00C9492
:1013600003090C944E095F3FE4F3983ED4F386954D
:1013700077956795B795F795E7959F5FC1F7FE2B32
:10138000880F911D9695879597F908950E94DF081B
:0A139000880B990B0895F894FFCF25
:10139A00000000004903A902D60296030703E502EA
:1013AA00F9026E616E00696E66006F7666004552DC
:0C13BA0052000D0A00543D0020483D0088
:00000001FF
