:100000000C9462000C948A000C948A000C948A0070
:100010000C948A000C948A000C948A000C948A0038
:100020000C948A000C948A000C948A000C948A0028
:100030000C948A000C948A000C948A000C948A0018
:100040000C9418020C948A000C9488020C9462029E
:100050000C948A000C948A000C948A000C948A00F8
:100060000C948A000C948A000000000023002600F3
:10007000290000000008000201000003040700003E
:1000800000000000000000000000250028002B00F8
:1000900000000000240027002A00040404040404D3
:1000A0000404020202020202030303030303010227
:1000B00004081020408001020408102001020408F6
:1000C0001020EE0311241FBECFEFD8E0DEBFCDBF5E
:1000D00011E0A0E0B1E0EAE8F8E002C005900D927E
:1000E000A832B107D9F721E0A8E2B1E001C01D9222
:1000F000A03DB207E1F710E0C2E6D0E004C02197CE
:10010000FE010E943D04C136D107C9F70E94BA0220
:100110000C9443040C940000CF93DF9390E0FC0117
:10012000E255FF4F249186569F4FFC01849188230E
:10013000C1F090E0880F991FFC01E057FF4FC59177
:10014000D491FC01EA57FF4FA591B4919FB7F89461
:100150008881E22FE0958E2388838C91E823EC93AD
:100160009FBFDF91CF91089590E0FC01EE58FF4FC3
:100170002491FC01E255FF4F3491FC01E656FF4FFC
:10018000E491EE23C1F1222339F02330E9F090F419
:10019000213001F1223011F1F0E0EE0FFF1FE8599C
:1001A000FF4FA591B491EC91E32381E090E029F514
:1001B00080E008952730A9F02830C9F0243061F795
:1001C000809180008F7D03C0809180008F77809325
:1001D0008000E2CF84B58F7784BDDECF84B58F7D7C
:1001E000FBCF8091B0008F778093B000D5CF809106
:1001F000B0008F7DF9CF80E090E00895AF92BF927C
:10020000CF92DF92EF92FF920F931F93CF93DF93E2
:100210006C017B018B01040F151FEB015E01AE1811
:10022000BF08C017D10759F06991D601ED91FC9133
:100230000190F081E02DC6010995892B79F7C50160
:10024000DF91CF911F910F91FF90EF90DF90CF90B2
:10025000BF90AF900895FC01538D448D252F30E061
:10026000842F90E0821B930B541710F0CF960895C3
:1002700001970895FC01918D828D981761F0A28DF0
:10028000AE0FBF2FB11D5D968C91928D9F5F9F73B6
:10029000928F90E008958FEF9FEF0895FC01918D6C
:1002A000828D981731F0828DE80FF11D858D90E0D9
:1002B00008958FEF9FEF0895FC01918D228D892F76
:1002C00090E0805C9F4F821B91098F73992708955E
:1002D00083E391E00E945C0121E0892B09F420E096
:1002E000822F089580E090E0892B29F00E94680118
:1002F00081110C9400000895FC01A48DA80FB92F62
:10030000B11DA35ABF4F2C91848D90E001968F733D
:100310009927848FA689B7892C93A089B1898C915C
:10032000837080648C93938D848D981306C00288AB
:10033000F389E02D80818F7D80830895EF92FF9275
:100340000F931F93CF93DF93EC0181E0888F9B8DF8
:100350008C8D98131AC0E889F989808185FF15C0B2
:100360009FB7F894EE89FF896083E889F9898081D5
:100370008370806480839FBF81E090E0DF91CF91A4
:100380001F910F91FF90EF900895F62E0B8D10E0C6
:100390000F5F1F4F0F731127E02E8C8D8E110CC035
:1003A0000FB607FCFACFE889F989808185FFF5CF80
:1003B000CE010E947C01F1CFEB8DEC0FFD2FF11DE2
:1003C000E35AFF4FF0829FB7F8940B8FEA89FB89BD
:1003D00080818062CFCFCF93DF93EC01888D88231B
:1003E000B9F0AA89BB89E889F9898C9185FD03C098
:1003F000808186FD0DC00FB607FCF7CF8C9185FF7D
:10040000F2CF808185FFEDCFCE010E947C01E9CF44
:10041000DF91CF910895FC0101900020E9F7319719
:10042000AF01481B590BBC0183E391E00C94FE0023
:100430001F920F920FB60F9211242F933F938F9319
:100440009F93AF93BF9380912F0190913001A09122
:100450003101B091320130912E0123E0230F2D376D
:1004600058F50196A11DB11D20932E0180932F01F7
:1004700090933001A0933101B093320180912A0111
:1004800090912B01A0912C01B0912D010196A11DFD
:10049000B11D80932A0190932B01A0932C01B0935E
:1004A0002D01BF91AF919F918F913F912F910F900F
:1004B0000FBE0F901F90189526E8230F0296A11DDE
:1004C000B11DD2CF1F920F920FB60F9211242F930E
:1004D0003F934F935F936F937F938F939F93AF93CC
:1004E000BF93EF93FF9383E391E00E947C01FF9120
:1004F000EF91BF91AF919F918F917F916F915F919C
:100500004F913F912F910F900FBE0F901F90189514
:100510001F920F920FB60F9211242F938F939F93D8
:10052000EF93FF93E0914301F09144018081E091CA
:100530004901F0914A0182FD1BC0908180914C01DC
:100540008F5F8F7320914D01821741F0E0914C0134
:10055000F0E0ED5CFE4F958F80934C01FF91EF91A1
:100560009F918F912F910F900FBE0F901F90189514
:100570008081F4CFCF93DF93CDB7DEB7A1970FB6CD
:10058000F894DEBF0FBECDBF789484B5826084BD81
:1005900084B5816084BD85B5826085BD85B5816087
:1005A00085BD80916E00816080936E001092810005
:1005B00080918100826080938100809181008160C0
:1005C0008093810080918000816080938000809181
:1005D000B10084608093B1008091B000816080930D
:1005E000B00080917A00846080937A0080917A00D4
:1005F000826080937A0080917A00816080937A0093
:1006000080917A00806880937A001092C10082E025
:100610000E948C0083E00E948C0084E00E948C0089
:10062000E0914301F091440182E08083E0913F0139
:10063000F09140011082E0914101F091420180E18E
:10064000808310924B01E0914701F091480186E0D0
:100650008083E0914501F091460180818061808333
:10066000E0914501F0914601808188608083E091AE
:100670004501F0914601808180688083E0914501C9
:10068000F091460180818F7D808382E00E94B400DA
:10069000909301018093000184E191E00E940B029C
:1006A0008AE191E00E940B028AE0482E512C612CD5
:1006B000712C90E0A92E90E0B92E82E00E94B40047
:1006C0008C0180910001909101010817190709F42C
:1006D0004DC00115110509F049C083E00E94B40026
:1006E0008130910511F08FEF9FEF2091280130911B
:1006F0002901820F931F90932901809328018DE196
:1007000091E00E940B02C0902801D09029010D2C8D
:10071000000CEE08FF08F7FE4BC06DE283E391E0AA
:100720000E949E0122273327A9012C193D094E0959
:100730005F0919A2CE0181967C01CA01B901A3010A
:1007400092010E941B04605DF70162937F012115F5
:1007500031054105510589F7E114F10419F0C7018C
:100760000E940B028AE191E00E940B0210930101AA
:100770000093000184E00E94B400892B69F482E2B6
:1007800091E00E940B028AE191E00E940B0284E05A
:100790000E94B400892BD9F3A114B10409F48DCFC0
:1007A0000E946801882309F488CF0E94000085CF49
:1007B000A701960119A2CE0181967C01CA01B90157
:1007C000A30192010E941B04605DF70162937F0107
:1007D000211531054105510589F7BECFE3E3F1E06D
:1007E0001382128288EE93E0A0E0B0E084839583C8
:1007F000A683B78386E091E09183808385EC90E0C7
:100800009587848784EC90E09787868780EC90E0DA
:10081000918B808B81EC90E0938B828B82EC90E0CB
:10082000958B848B86EC90E0978B868B118E128E45
:10083000138E148E0895A1E21A2EAA1BBB1BFD0174
:100840000DC0AA1FBB1FEE1FFF1FA217B307E407AF
:10085000F50720F0A21BB30BE40BF50B661F771F07
:10086000881F991F1A9469F76095709580959095E7
:100870009B01AC01BD01CF010895EE0FFF1F059054
:0A088000F491E02D0994F894FFCFE5
:10088A000100000000009E01FE002B01EB015C014B
:10089A003A014E017265616479000D0A00706F7346
:0808AA003D00636C69636B0003
:00000001FF
