:100000000C945C000C946E000C946E000C946E00CA
:100010000C946E000C946E000C946E000C946E00A8
:100020000C946E000C946E000C946E000C946E0098
:100030000C946E000C946E000C946E000C946E0088
:100040000C94D7000C946E000C946E000C946E000F
:100050000C946E000C946E000C946E000C946E0068
:100060000C946E000C946E00000000002400270029
:100070002A0000000000250028002B0004040404CE
:100080000404040402020202020203030303030342
:10009000010204081020408001020408102001021F
:1000A00004081020000000080002010000030407FB
:1000B000000000000000000011241FBECFEFD8E0B8
:1000C000DEBFCDBF21E0A0E0B1E001C01D92AA30AB
:1000D000B207E1F70E9421010C94AA010C940000E0
:1000E000EEEAF0E02491EAE9F0E09491E6E8F0E04D
:1000F000E491EE23C9F0222339F0233001F1A8F472
:10010000213019F1223029F1F0E0EE0FFF1FEE58F7
:10011000FF4FA591B4912FB7F894EC91811126C0AF
:1001200090959E239C932FBF08952730A9F02830E7
:10013000C9F0243049F7209180002F7D03C0209121
:1001400080002F7720938000DFCF24B52F7724BD48
:10015000DBCF24B52F7DFBCF2091B0002F772093EC
:10016000B000D2CF2091B0002F7DF9CF9E2BDACFF7
:1001700090E0FC01E057FF4F249184589F4FFC0111
:100180008491882399F090E0880F991FFC01E85929
:10019000FF4FA591B491FC01EE58FF4F85919491CA
:1001A0008FB7F894EC91E22BEC938FBF08951F92D8
:1001B0000F920FB60F9211242F933F938F939F931B
:1001C000AF93BF938091060190910701A091080120
:1001D000B09109013091050123E0230F2D3758F527
:1001E0000196A11DB11D20930501809306019093F6
:1001F0000701A0930801B09309018091010190913A
:100200000201A0910301B09104010196A11DB11D4D
:100210008093010190930201A0930301B093040124
:10022000BF91AF919F918F913F912F910F900FBEF2
:100230000F901F90189526E8230F0296A11DB11D5F
:10024000D2CF789484B5826084BD84B5816084BD4A
:1002500085B5826085BD85B5816085BD80916E0064
:10026000816080936E001092810080918100826095
:1002700080938100809181008160809381008091D2
:1002800080008160809380008091B10084608093C1
:10029000B1008091B00081608093B00080917A00BD
:1002A000846080937A0080917A00826080937A00E3
:1002B00080917A00816080937A0080917A008068D2
:1002C00080937A001092C1008AE00E94B800CFB7F4
:1002D000F89480910001811123C0E6E8F0E0849158
:1002E000EAE9F0E09491E82FF0E0EE0FFF1FE85903
:1002F000FF4FA591B491EC91E92319F481E00E949C
:1003000070008AE00E94B8008CB580618CBD8CB50D
:1003100080648CBD8DE00E94B8008BE00E94B80024
:10032000809100018F5F80930001CFBF80E00E9429
:10033000700083EC8EBD00000DB407FEFDCF8EB5BE
:1003400081E00E947000C0E0D0E02097F1F30E94AD
:080350000000FBCFF894FFCF81
:00000001FF
