:100000000C94CB000C94F3000C94F3000C94F300CC
:100010000C94F3000C94F3000C94F3000C94F30094
:100020000C9446050C94F3000C94F3000C94F3002C
:100030000C94F3000C94F3000C94F3000C94F30074
:100040000C94A4040C94F3000C9414050C94EE048A
:100050000C94F3000C94F3000C94F3000C94F30054
:100060000C94F3000C94F30017002860095802B0B8
:1000700004580258025802102D000000060026E025
:100080002070100E022A060E022602806E00510415
:10009000050026E02070100E022A060E020E020055
:1000A00041000000130026801180113002900630BC
:1000B000023002006E0000001E002638081C040EEC
:1000C000022A060E020E0200320000001C00262248
:1000D0000B220BEE026608EE02EE02806E000000BC
:1000E000190026F603BC050802BC050802D401006D
:1000F0004B0000001B00261F015D033E023E021F55
:10010000015D03A06E00000004002604010C03043E
:10011000011C0704010C03006E0000000B00258089
:100120000DC006B0011005B001B001008200000052
:1001300007002600238011300290063002300200B2
:100140006E004104000000080002010000030407E3
:100150000000000000000000000000002500280052
:100160002B0000000000240027002A0004040404DF
:100170000404040402020202020203030303030351
:10018000010204081020408001020408102001022E
:1001900004081020360611241FBECFEFD8E0DEBFC2
:1001A000CDBF22E0ACE3B1E001C01D92AD3FB2078C
:1001B000E1F711E0A0E0B1E0E0E2F0E202C005907A
:1001C0000D92AC33B107D9F710E0CBECD0E004C00E
:1001D0002197FE010E940810CA3CD107C9F70E946E
:1001E00072060C940E100C9400002091EE023091D7
:1001F000EF022817390728F48091EC028160809380
:10020000EC0208952091F0018091ED0240E0281762
:1002100098F5422F41703091F301311121C0E22F46
:10022000F0E0E951FE4F838992E3899FF0011124A8
:10023000ACEEBFEF442311F0A4E1B0E06091F40113
:100240007091F501CB01969587958E0F9F1F8A0FB0
:100250009B1F0E94F40F77277093F2016093F101C6
:100260008091F1019091F201009771F03F5F381792
:10027000190620F43093F301842F08951092F301AE
:100280002F5F2093F001F8CF42E0F6CF90E0FC0121
:10029000EC5BFE4F2491FC01E058FE4F3491FC01D1
:1002A000E459FE4FE491EE23C9F0222339F02330C4
:1002B00001F1A8F4213019F1223029F1F0E0EE0F1C
:1002C000FF1FE85AFE4FA591B4918FB7F894EC91B7
:1002D000611126C030953E233C938FBF089527308F
:1002E000A9F02830C9F0243049F7809180008F7D33
:1002F00003C0809180008F7780938000DFCF84B52A
:100300008F7784BDDBCF84B58F7DFBCF8091B0002C
:100310008F778093B000D2CF8091B0008F7DF9CFDE
:100320003E2BDACF3FB7F894809141019091420182
:10033000A0914301B091440126B5A89B05C02F3F71
:1003400019F00196A11DB11D3FBFBA2FA92F982FFB
:100350008827BC01CD01620F711D811D911D42E0F6
:10036000660F771F881F991F4A95D1F70895AF929E
:10037000BF92CF92DF92EF92FF920F931F93CF9392
:10038000DF936C017B018B01040F151FEB015E01F4
:10039000AE18BF08C017D10759F06991D601ED9189
:1003A000FC910190F081E02DC6010995892B79F728
:1003B000C501DF91CF911F910F91FF90EF90DF90DA
:1003C000CF90BF90AF900895FC01538D448D252FA1
:1003D00030E0842F90E0821B930B541710F0CF96DF
:1003E000089501970895FC01918D828D981761F011
:1003F000A28DAE0FBF2FB11D5D968C91928D9F5F28
:100400009F73928F90E008958FEF9FEF0895FC0106
:10041000918D828D981731F0828DE80FF11D858DB9
:1004200090E008958FEF9FEF0895FC01918D228D4C
:10043000892F90E0805C9F4F821B91098F739927D1
:10044000089585E491E00E94150221E0892B09F4CA
:1004500020E0822F089580E090E0892B29F00E940F
:10046000210281110C9400000895FC01A48DA80FB5
:10047000B92FB11DA35ABF4F2C91848D90E00196E6
:100480008F739927848FA689B7892C93A089B18906
:100490008C91837080648C93938D848D981306C0A7
:1004A0000288F389E02D80818F7D80830895EF920B
:1004B000FF920F931F93CF93DF93EC0181E0888F1E
:1004C0009B8D8C8D98131AC0E889F989808185FFEE
:1004D00015C09FB7F894EE89FF896083E889F98990
:1004E00080818370806480839FBF81E090E0DF9192
:1004F000CF911F910F91FF90EF900895F62E0B8DE5
:1005000010E00F5F1F4F0F731127E02E8C8D8E119F
:100510000CC00FB607FCFACFE889F989808185FF06
:10052000F5CFCE010E943502F1CFEB8DEC0FFD2F00
:10053000F11DE35AFF4FF0829FB7F8940B8FEA89C1
:10054000FB8980818062CFCFCF93DF93EC01888DD0
:100550008823B9F0AA89BB89E889F9898C9185FD3E
:1005600003C0808186FD0DC00FB607FCF7CF8C91CC
:1005700085FFF2CF808185FFEDCFCE010E9435024D
:10058000E9CFDF91CF9108958F929F92AF92BF9262
:10059000CF92DF92EF92FF924B015C010E94920199
:1005A0006B017C0124E0C21AD108E108F1080E9425
:1005B00092016C197D098E099F09681579058A05D4
:1005C0009B05A8F3FF90EF90DF90CF90BF90AF9086
:1005D0009F908F90089542E3489F9001499F300D6E
:1005E00011242C5E3F4F7695679576956795CB01E4
:1005F000880F991F860F971F8217930750F485E085
:10060000869FA001879F500D112481E04217530758
:1006100008F480E0089542E3489F9001499F300D1F
:100620001124245131097695679576956795CB010C
:10063000880F991F860F971F8217930750F485E044
:10064000869FA001879F500D112481E04217530718
:1006500008F480E008954F925F926F927F929F928C
:10066000AF92BF92CF92DF92EF92FF920F931F93C0
:10067000CF93DF93182F5A01922EC62FD0E0C65089
:10068000DE4F412C512C32014394C12CD12C7601E8
:100690001123F1F09920B1F08881B50190E00E941A
:1006A0000B03002369F1CC0CDD1CEE1CFF1C88231E
:1006B00011F06894C0F8440C551C661C771C11504E
:1006C0002296E6CF8981B50190E00E94EB02E9CF46
:1006D000C092CA02D092CB02E092CC02F092CD023C
:1006E000DF91CF911F910F91FF90EF90DF90CF900E
:1006F000BF90AF909F907F906F905F904F900895C4
:100700008823C9F2C428D528E628F728D4CFCF9368
:10071000DF93EC01FC013396659174918091FB01AC
:1007200090E00E940B03882359F0FE0135966591F5
:1007300074918091FC0190E0DF91CF910C94EB02D9
:1007400080E0DF91CF9108958AE190E09093E401F9
:100750008093E30185E090E09093E6018093E501CA
:100760008091E20190E0FC01E058FE4F2491845911
:100770009E4FFC018491882399F090E0880F991F87
:10078000FC01EE59FE4FA591B491FC01E85AFE4FD1
:10079000859194918FB7F894EC91E22BEC938FBFF5
:1007A00008958091FB028F3F11F42D98089560E029
:1007B0000C944601882349F08091FB028F3F11F48D
:1007C0002D9A089561E00C9446010C94D1038F9208
:1007D0009F92AF92BF92CF92DF92EF92FF92CF9310
:1007E0006C010E9492014B015C01F12CE12C88E02C
:1007F000C80ED11CE11CF11CC80CD91CEA1CFB1C46
:10080000C0E0F89461E08091E2010E944601E0912D
:10081000E501F091E601E230F10538F0EE0FFF1F3F
:10082000EE0FFF1F35973197F1F760E08091E201FD
:100830000E9446017894C11103C081E00E94DA034E
:100840008091E3019091E401880E991EA11CB11CD6
:100850000E9492016C157D058E059F0558F0CF9181
:10086000FF90EF90DF90CF90BF90AF909F908F90D0
:100870000C94D103C1E0681579058A059B0540F306
:10088000C0CF0E94A40380E093E20E94E70360ECE3
:1008900078E080E090E00E94C40280E392E00C9453
:1008A000E7030E94A40380EE90E20E94E70368E35E
:1008B00078E080E090E00E94C4028EE092E00C9428
:1008C000E703FC0101900020E9F73197AF01481BD5
:1008D000590BBC0185E491E00C94B701FF920F9392
:1008E0001F93CF93DF93CDB7DEB764970FB6F8941D
:1008F000DEBF0FBECDBF162FF42E44E150E0BC0189
:10090000CE0101960E94C10F0889802F8071488511
:10091000598504FD02C04A855B85001F0027001F22
:1009200021E0811101C020E06F2D812F0E942B0357
:1009300064960FB6F894DEBF0FBECDBFDF91CF91A6
:100940001F910F91FF9008951F920F920FB60F9273
:1009500011242F933F938F939F93AF93BF938091D5
:100960003D0190913E01A0913F01B0914001309135
:100970003C0123E0230F2D3758F50196A11DB11D31
:1009800020933C0180933D0190933E01A0933F0151
:10099000B09340018091410190914201A0914301A7
:1009A000B09144010196A11DB11D80934101909326
:1009B0004201A0934301B0934401BF91AF919F9135
:1009C0008F913F912F910F900FBE0F901F90189510
:1009D00026E8230F0296A11DB11DD2CF1F920F92C0
:1009E0000FB60F9211242F933F934F935F936F9302
:1009F0007F938F939F93AF93BF93EF93FF9385E480
:100A000091E00E943502FF91EF91BF91AF919F91CC
:100A10008F917F916F915F914F913F912F910F90A7
:100A20000FBE0F901F9018951F920F920FB60F9246
:100A300011242F938F939F93EF93FF93E091550190
:100A4000F09156018081E0915B01F0915C0182FDA3
:100A50001BC0908180915E018F5F8F7320915F0139
:100A6000821741F0E0915E01F0E0EB5BFE4F958F65
:100A700080935E01FF91EF919F918F912F910F9045
:100A80000FBE0F901F9018958081F4CF1F920F9288
:100A90000FB60F9211242F933F934F935F936F9351
:100AA0007F938F939F93AF93BF93CF93EF93FF93D6
:100AB000E091E901F091EA01C0818091EB01C82346
:100AC0008091EC019091ED012091EC013091ED01CC
:100AD0002F3F3F4F29F001969093ED018093EC0159
:100AE0002091E701211115C0C1114BC0813A910538
:100AF00058F01092F6019093F9018093F80181E08B
:100B00008093F7018093E7011092ED011092EC01C0
:100B100038C0213099F4CC23A1F1E091F7012E0FD8
:100B20002093F701F0E0E951FE4F8F3F910519F056
:100B300010F08FEF90E0838B82E0E4CF223009F059
:100B400047C0E091F701813A910510F4E73CA0F12C
:100B5000E83C18F081E08093F6018091F8019091D3
:100B6000F9019093EF028093EE02E093ED0283E0AF
:100B70008093E701E091EE01F091EF01309709F0E9
:100B800009958091FC02882329F081E0C11180E061
:100B90000E94DA03FF91EF91CF91BF91AF919F91A6
:100BA0008F917F916F915F914F913F912F910F9016
:100BB0000FBE0F901F901895C111E3CF91E09E0FCB
:100BC0009093F701F0E0E951FE4F838B81E09ACFDB
:100BD0002330B9F6C111D5CF97CFDF92EF92FF92B4
:100BE0000F931F93CF93DF93EC01D62E8A017901E7
:100BF000F0E090E080E030E0E0E0DE01AE0FB11D1B
:100C00002C91FF5F222339F0320F2E9F800D911D12
:100C100011241C92F0E03323B9F0DE1611F0F2300B
:100C200098F0232F2695820F911D632F70E00E946C
:100C3000F40FDE01A60FB11D3C93D8013C91311198
:100C40000FC06C9390E080E0EF5FDE16B0F681E0BD
:100C5000DF91CF911F910F91FF90EF90DF9008955A
:100C6000D7013C91332369F380E0F2CFE5E4F1E072
:100C70001382128288EE93E0A0E0B0E08483958333
:100C8000A683B78388E191E09183808385EC90E02F
:100C90009587848784EC90E09787868780EC90E046
:100CA000918B808B81EC90E0938B828B82EC90E037
:100CB000958B848B86EC90E0978B868B118E128EB1
:100CC000138E148E8FEF8093FB02E7EEF1E011821A
:100CD00081E0848389E290E093838283509810922C
:100CE000E2010895CF93DF93CDB7DEB7E9970FB652
:100CF000F894DEBF0FBECDBF789484B5826084BD0A
:100D000084B5816084BD85B5826085BD85B581600F
:100D100085BD80916E00816080936E00109281008D
:100D20008091810082608093810080918100816048
:100D30008093810080918000816080938000809109
:100D4000B10084608093B1008091B0008160809395
:100D5000B00080917A00846080937A0080917A005C
:100D6000826080937A0080917A00816080937A001B
:100D700080917A00806880937A001092C100E0919F
:100D80005501F091560182E08083E0915101F0918C
:100D900052011082E0915301F091540190E190834F
:100DA00010925D01E0915901F0915A0196E0908313
:100DB000E0915701F0915801908190619083E0910A
:100DC0005701F0915801908198609083E09157010C
:100DD000F0915801908190689083E0915701F091D3
:100DE000580190819F7D90838093E80194E09093D7
:100DF000EB0129E230E03093EA012093E9015298B7
:100E00001092FC029FEF9093FB02259A8093B00012
:100E10008093B10084E68093B3008093B400109275
:100E2000B2008091E701833011F41092E70184E071
:100E30008093700086E291E00E9461048CE291E070
:100E40000E9461049E012F5F3F4F590190E2892E5D
:100E5000912C8091E701833011F00C94AF0F8091B9
:100E6000F601882309F463C080E48093EC021092B9
:100E7000C3021092C2021092C7021092C6021092D0
:100E8000C5021092C4021092CA021092CB021092B4
:100E9000CC021092CD021092EB021092EA028091E5
:100EA000EC0286FDBBC11091ED02812F8F7B843057
:100EB00009F0BDC08091FB0160E073E290E00E9408
:100EC0000B03882309F440C18091FC0190E01430A9
:100ED00009F048C060EC78E00E94EB02882309F436
:100EE00033C18091FD0160E372E090E00E940B034A
:100EF000882309F429C181E08093EC028091F202F9
:100F00009091F3029093C5028093C4028091F40201
:100F10009091F5029093C7028093C6028091F002EF
:100F20009091F1029093C3028093C20277C1109214
:100F3000EC028091C2029091C3029093F1028093DF
:100F4000F0028091C6029091C7029093F5028093BF
:100F5000F4028091C4029091C5029093F3028093B1
:100F6000F20285CF60E871E10E94EB02882309F468
:100F7000EBC043E060E280E391E00E946E042091C8
:100F8000CA029091CB026091CC028091CD02462F93
:100F900050E05093C7024093C602422F592F4E3E55
:100FA00037E8530709F523E030E03093C30220937C
:100FB000C20290E09093C5028093C4029092EB022B
:100FC0008092EA028AE795E00E94F5008091EC02A7
:100FD00080FF93C728E030E03093C3022093C20221
:100FE00080628093EC021AC19095291310C030E002
:100FF0003093C5022093C402982F909569130CC0BA
:1010000087E090E09093C3028093C202D7CF5093C1
:10101000C5024093C402F0CF29E030E03093C30210
:101020002093C2026093C6028093C702C7CF1436D2
:1010300009F08AC08CE191E00E948703882309F4BB
:1010400083C043E060E18CE191E00E946E04D090A7
:10105000CA020D2D1091CB02BAE0EB2EF12C02301A
:1010600040E21407F9F0ADE0EA2EF12C0A3A8AE5E5
:101070001807C1F0FCE0EF2EF12C043592E31907BC
:1010800089F0EEE0EE2EF12C0330A1E01A0751F0CA
:101090008FE0E82EF12C0332BBEC1B0719F07BE04C
:1010A000E72EF12CD1268D2D82958F70D82643E224
:1010B00060E28CE191E00E946E048091CA029091FE
:1010C000CB02A091CC02B091CD029C0164E0369598
:1010D00027956A95E1F73093C5022093C4022A2F21
:1010E00030E03093C7022093C602282F2A272927F1
:1010F0003D2D3F70482F4F70341719F034E0309376
:10110000EC02EBE0EE16F10449F43091EC023061B0
:101110003093EC021093C9020093C8022B1729F0F8
:101120008091EC0284608093EC0280E390E09093E5
:10113000EB028093EA02F092C302E092C2028AE3D9
:1011400097E00E94F5006AC08091ED02803209F0BC
:1011500071C08091FB018A3008F06CC041E06FE003
:1011600088E091E00E946E048091CA029091CB02C7
:10117000A091CC02B091CD029C012F713327309306
:10118000C5022093C40255E0B695A795979587951B
:101190005A95D1F7392F3370AC0155275093C702B8
:1011A0004093C6024091EE025091EF024536544002
:1011B000F0F52091EC0222602093EC022091FA02DB
:1011C0002F5F2093FA0220FF19C0213019F021E08F
:1011D0002093EC023091F4024091F502282F2095E3
:1011E000231729F02091EC0224602093EC02309325
:1011F000C6024093C702392F3095337086E190E0E4
:10120000311102C084E090E09093C3028093C20247
:101210008FE090E09093EB028093EA028091EC02E1
:1012200080FF6BC68FE291E00E9461048EC610922F
:10123000FA02E4CF88E690E00E9487039091ED02E5
:10124000882309F445C09A3129F09A3219F0903276
:1012500009F03EC0892F90E0BC016150710977FD13
:10126000BC017595679543E088E690E00E946E04A6
:101270008091CA029091CB02A091CC02B091CD0294
:101280009C012F7733273093C7022093C60247E093
:10129000B695A795979587954A95D1F79093C502EE
:1012A0008093C4022091ED0230E0C901019797FDBF
:1012B000C901959587959093EB028093EA0287E1A7
:1012C00090E09093C3028093C20288E292E039CF0B
:1012D00081E08093F00129E733E03093F50120931A
:1012E000F4011092F3019E509B3108F0C1C080912F
:1012F000FB018D3208F0BCC00E940201813009F070
:10130000B7C000E0C12CD12C760110E09091F00123
:101310008091ED029817C0F50E940201782E0E947C
:10132000020171100AC0813091F4CC0CDD1CEE1C5E
:10133000FF1C6894C0F81F5FE9CF31E0731207C04B
:10134000811105C0CC0CDD1CEE1CFF1CF4CF173046
:1013500009F08EC08091F001E82FF0E0E951FE4FD6
:101360009389963340F39091F3019E5F9093F3013C
:101370002091F1013091F2019217130618F08F5F5E
:101380008093F00101E0D7CFC092CA02D092CB0285
:10139000E092CC02F092CD02C601A6E09695879528
:1013A000AA95E1F7212F30E00023D9F1215031092E
:1013B0003093EB022093EA0296012F733327309388
:1013C000C9022093C8028F7399279093C702809314
:1013D000C602B701A601FCE076956795579547953B
:1013E000FA95D1F74F7155275093C5024093C40227
:1013F000E2FC06C0805C9F4F9093C7028093C602B8
:1014000080E98093EC02E1FE03C088E98093EC025E
:101410008DE190E09093C3028093C2028AED98E040
:1014200090CE3093EB022093EA022C2D2F7330E004
:101430003093C7022093C6028F7199279093C502FB
:101440008093C402C60188279071892B31F4205CF7
:101450003F4F3093C7022093C60280E88093EC028E
:10146000D3FE03C088E88093EC0280E190E0D2CF05
:101470008091ED028A518F3208F0A5C08091FB0166
:1014800068E67AE090E00E940B03882309F49BC091
:101490008091FC0168E773E090E00E94EB028823F2
:1014A00009F491C083E08093F0018CEB91E090937C
:1014B000F5018093F4011092F3010E940201813042
:1014C00009F081C00E94020181117DC0C12CD12C84
:1014D000760110E09091F0018091ED02981730F5BF
:1014E0000E940201082F0E940201133049F40813E0
:1014F0006AC00E940201782E0E940201781263C025
:10150000013051F481115FC0CC0CDD1CEE1CFF1CBE
:101510006894C0F81F5FDECF011155C0813009F01B
:1015200052C0CC0CDD1CEE1CFF1CF4CF812F90E0D0
:101530009093EB028093EA02C092CA02D092CB024F
:10154000E092CC02F092CD022C2D30E08D2D90E077
:10155000133200F540E84093EC023093C702209329
:10156000C6029093C5028093C402E0FE03C088E8DF
:101570008093EC02153128F08091EC028061809319
:10158000EC0281E190E09093C3028093C20283E772
:101590009AE0D7CD40E94093EC023093C702209304
:1015A000C6029093C5028093C402C7019F739093B3
:1015B000C9028093C802F7FE03C088E98093EC0259
:1015C00082E190E0E0CF1091ED021C3319F014306D
:1015D00009F099C08091FB0160EE70E290E00E94FA
:1015E0000B03882309F48FC01430A1F50091F00299
:1015F0001091F1020630110509F0DBC08091FC0169
:1016000068E378E090E00E94EB02882309F4D1C0FF
:101610008091FD016EE072E090E00E940B03882350
:1016200009F4C7C081E88093EC028091F2029091A6
:10163000F3029093C5028093C4028091F4029091CA
:10164000F5029093C7028093C6021093C3020093E1
:10165000C202E4CD8091FC0160E770E190E00E945D
:10166000EB02882309F44FC043E06CE18CE790E083
:101670000E946E0480E88093EC028091CA029091EF
:10168000CB02A091CC02B091CD028C019D0144E02F
:1016900036952795179507954A95D1F7A801109388
:1016A000C7020093C6028C019D0164E1369527951F
:1016B000179507956A95D1F71093C5020093C40258
:1016C00024E030E060E0742F7F70670F04E05695EF
:1016D00047950A95E1F721503109A9F786278F70C0
:1016E0009927AA27BB27892B8A2B8B2B19F084E8F3
:1016F0008093EC0286E090E09093C3028093C20254
:101700008CE190E087CD123271F1143209F051C0B2
:1017100080E990E00E948703882309F44AC043E0EF
:1017200060E180E990E00E946E048091CA0290918D
:10173000CB02A091CC02B091CD02492F5A2F6B2F32
:1017400077275093C7024093C60299279093C5020A
:101750008093C40280E190E09093EB028093EA02D0
:1017600085E090E0DFCB0091F0021091F1020530AE
:10177000110509F053CD8091EE029091EF028C3E5D
:101780009C4508F04BCD8091FB016EE072E090E04B
:101790000E940B03882309F441CD80911B026EE067
:1017A00072E090E00E940B03882309F437CD81E0BA
:1017B0003ACF8091ED02982F9F7D943419F08630B6
:1017C00009F081C084EA90E00E948703882309F42D
:1017D0007AC08091F0029091F10284319105C1F4B8
:1017E0002091ED022630A1F421E22093EC02209119
:1017F000F2023091F3023093C5022093C40220918B
:10180000F4023091F5023093C7022093C6028ACBCE
:1018100043E060E284EA90E00E946E049091CA0284
:101820008091CB021091CC024091CD029C0130936B
:10183000C4022093C5022091ED02042F00952436A6
:1018400039F543E460E184EA90E00E946E048091FF
:10185000CA029091CB02101731F09095981719F0A9
:1018600094E09093EC02982F812F9093C70280937D
:10187000C60280E390E09093EB028093EA0285E158
:1018800090E09093C3028093C2028EEB9AE059CC11
:10189000101314C0212F30E03093C7022093C602EA
:1018A000891305C090E09093C5028093C402909282
:1018B000EB028092EA0283E190E0E3CF1093C6024C
:1018C0004093C702EDCF8091ED02843269F588EB39
:1018D00090E00E948703882339F143E060E188EBC0
:1018E00090E00E946E041091CA028091CB02809514
:1018F000181719F084E08093EC028DE692E00E94C4
:10190000F500812F90E09093C7028093C602109259
:10191000C5021092C40280E190E09093EB028093A4
:10192000EA028EE190E0FECA8091ED028434B1F4C7
:101930008CEC90E00E948703882381F043E060E212
:101940008CEC90E00E946E0480E88093EC02909210
:10195000EB028092EA028CE190E0E4CA8091FB0104
:10196000A2E38A9FC0011124835691098C39910505
:1019700008F068C08091FC0162E074E090E00E9491
:10198000EB02882309F45EC08091ED02843209F0F5
:1019900059C000910F01802F807140910701509133
:1019A000080104FD04C04091090150910A01001F83
:1019B0000027001F21E0811101C020E063E080E1E9
:1019C0000E942B0380E88093EC029091CA028091E0
:1019D000CB02292F382F482F42954F708F70A4E0EB
:1019E00036952795AA95E1F72F70392F3F709FE024
:1019F000942798279227391719F094E89093EC02CE
:101A00009091EC026091EE027091EF02683F71419B
:101A100018F492609093EC024093C4021092C502B5
:101A2000E0E18E9FC0011124822B9093C702809326
:101A3000C60280E190E09093EB028093EA028AE193
:101A400090E070CA80EE90E00E948703882371F1D5
:101A50008091ED02843251F543E060E180EE90E048
:101A60000E946E0480911D0268E072E090E00E9486
:101A70000B038823D9F08091CA029091CB0298275A
:101A80009F3FA1F490E09093C7028093C60280E14B
:101A900090E09093EB028093EA0289E190E09093CA
:101AA000C3028093C20288ED94E04BCB8091ED029B
:101AB000803709F04FC041E068E084EF90E00E9479
:101AC0006E048091CA029091CB02A091CC02B09199
:101AD000CD02892B8A2B8B2BE9F541E16FE184EF55
:101AE00090E00E946E04C090CA02D090CB02E090B9
:101AF000CC02F090CD024FE461E184EF90E00E94CF
:101B00006E049091CB028091CC0289279827892777
:101B10009093C7028093C602C092CA02D092CB02B1
:101B2000E092CC02F092CD02D092C502C092C402E3
:101B3000F092C902E092C8028BE190E09093C30258
:101B40008093C20288E390E09093EB028093EA02D4
:101B500080E847CA8091ED028F7B8430F1F5809157
:101B6000FB0160E073E290E00E940B038823A9F17F
:101B70008091FC0160E871E190E00E94EB02882313
:101B800061F143E060E280E391E00E946E048091A5
:101B9000CA029091CB023091CC022091CD02909557
:101BA00089131BC0922F90959317B9F04FE150E025
:101BB0005093C3024093C20290E09093C502809379
:101BC000C402C9019093C6028093C7029092EB02AF
:101BD0008092EA028AE795E0B4CA8091ED028231F0
:101BE00008F438C192E3D5011D929A95E9F743E0D4
:101BF00060E08250990B242F30E02817390794F4C5
:101C000029513E4FF9012389223308F023C1F50100
:101C1000E20FF11D30813F5F3083621708F4622FBD
:101C20004E5FE9CF1EAA1DAA9E012B5C3F4FAE015D
:101C30004A5C5F4FC5010E94ED05882309F40AC183
:101C400082E3D5011D928A95E9F72091ED02225099
:101C5000330B44E060E0842F90E08217930794F404
:101C600089519E4FFC018389823308F0F3C0F5014E
:101C7000E80FF11D90819F5F9083681708F4682F2B
:101C80004E5FE9CF1CAA1BAA9E012D5C3F4FAE01FF
:101C90004C5C5F4FC5010E94ED05882309F4DAC052
:101CA0008091ED0286951FEF180FEBA8EE2011F042
:101CB0001EEF180F212F30E03093EB022093EA0241
:101CC000C901019797FD4F969C01F5E03595279541
:101CD000FA95E1F738AF2FAB3FA939AFCDA8C110C6
:101CE00003C0EE2009F4B6C04CA882E3489E200150
:101CF00011246EA8689E30011124C89E6001112431
:101D0000E89E70011124E3E02E2E312C812F113238
:101D100008F080E29BA9992309F47CC0A2E0B0E01E
:101D2000B093C302A093C20200E020E0A701622D9D
:101D30000E942B038091CA029091CB02A091CC0209
:101D4000B091CD0224E0329EF0011124E652FD4F05
:101D500080839183A283B38330E4230E10523394A3
:101D600049AD431598F62091EE023091EF02203DE7
:101D70003740F0F4EFA9F8ADEE0FFF1FEE0FFF1F95
:101D8000E652FD4F00811181228133814091F6029C
:101D90005091F7026091F8027091F902041715074B
:101DA0002607370729F42091EC0221602093EC02EA
:101DB0008093F6029093F702A093F802B093F90291
:101DC0002091FB0192E3299F900111243093CF02CF
:101DD0002093CE028091FC01899FC0011124909331
:101DE000D1028093D0027092D7026092D6025092B4
:101DF000D9024092D802C114D10419F1E114F104BE
:101E000099F4D092D302C092D2025092D50240925D
:101E1000D40204CAE1E0F0E0F093C302E093C2020E
:101E200000E021E0A60183CFF092D502E092D40237
:101E30007092D3026092D202D092D702C092D602A0
:101E4000EDC97092D3026092D202F092D502E09274
:101E5000D402E4C9E091ED02E63008F4DFC911E0F4
:101E600025EC3DE94CE151E8F0E00AE0612F70E03B
:101E7000CB0102968E179F077CF589519E4FDC019E
:101E800053968C9169517E4FDB0153966C91809FE4
:101E90007001112498E0699FD0011124EA16FB0615
:101EA000C8F0609FB0011124A8E08A9FC0011124EE
:101EB000FF24F3946817790710F462E0F62E63E9C3
:101EC00071E080E091E00E94CA0F9B01AC012F25D8
:101ED0001F5FCCCFF12CF3CF2093CA023093CB02FB
:101EE0004093CC025093CD029092EB028092EA0292
:101EF0001092C3021092C20291C986E391E00E943F
:101F000061044091C6025091C70270E060E019A2DE
:101F1000CE0181968A019B010F701127222733275A
:101F200024E076956795579547952A95D1F70A301D
:101F300034F5005DFC010293CF01411551056105A7
:101F4000710541F7EF2B09F06FC98CE291E00E9417
:101F500061048091E701833011F41092E70180E081
:101F600090E0892B11F40C9429070E942102882308
:101F700011F40C9426070E9400000C942607095CBB
:101F8000D9CFFB01DC0102C005900D9241505040B9
:101F9000D8F70895DB018F939F930E94DA0FBF91CA
:101FA000AF91A29F800D911DA39F900DB29F900DA8
:101FB000112408950E94E50FA59F900DB49F900DE8
:101FC000A49F800D911D11240895A29FB001B39F7D
:101FD000C001A39F700D811D1124911DB29F700D32
:101FE000811D1124911D0895AA1BBB1B51E107C03F
:101FF000AA1FBB1FA617B70710F0A61BB70B881F99
:10200000991F5A95A9F780959095BC01CD01089527
:10201000EE0FFF1F0590F491E02D0994F894FFCF87
:102020001A00269E0002049E0029029E000701005D
:102030006E000000000000005702B701E401A40296
:102040001502F30107027265616479000D0A0072DE
:0C205000657065617400636D643D000004
:00000001FF
