:100000000C945D000C9485000C9485000C94850084
:100010000C9485000C9485000C9485000C9485004C
:100020000C9485000C9485000C9485000C9485003C
:100030000C9485000C9485000C9485000C9485002C
:100040000C940F030C9485000C947F030C945903BB
:100050000C9485000C9485000C9485000C9485000C
:100060000C9485000C94850000000008000201003B
:100070000003040700000000000000000000000072
:10008000250028002B0000000000240027002A0083
:10009000040404040404040402020202020203032E
:1000A0000303030301020408102040800102040836
:1000B0001020010204081020B10311241FBECFEF4D
:1000C000D8E0DEBFCDBF11E0A0E0B1E0E8E9FBE0A1
:1000D00002C005900D92AA31B107D9F721E0AAE13B
:1000E000B1E001C01D92AA3DB207E1F710E0CDE5F5
:1000F000D0E004C02197FE010E948E05CC35D107C7
:10010000C9F70E9412040C94CA050C94000090E0F8
:10011000FC01EC55FF4F249180579F4FFC018491C7
:10012000882399F090E0880F991FFC01EA57FF4F50
:10013000A591B491FC01E458FF4F859194918FB73C
:10014000F894EC91E22BEC938FBF089590E0FC01C2
:10015000E859FF4F2491FC01EC55FF4F3491FC010D
:10016000E057FF4FE491EE23C9F0222339F023300A
:1001700001F1A8F4213019F1223029F1F0E0EE0F5D
:10018000FF1FE458FF4FA591B4918FB7F894EC91FD
:10019000611126C030953E233C938FBF08952730D0
:1001A000A9F02830C9F0243049F7809180008F7D74
:1001B00003C0809180008F7780938000DFCF84B56B
:1001C0008F7784BDDBCF84B58F7DFBCF8091B0006E
:1001D0008F778093B000D2CF8091B0008F7DF9CF20
:1001E0003E2BDACFCF93DF93EC018091C801909141
:1001F000C901029749F4C130D10509F43BC06CF53F
:1002000060E0209709F437C08091C8019091C9013E
:10021000049749F4C130D10509F45CC00CF037C033
:10022000209709F442C08091C8019091C9010597B7
:1002300009F0E5C0CA30D10508F0E1C0FE01ED5D6E
:10024000FE4F0C948E0582018E019F01B501D001F5
:10025000D201D901E501F601FD01C230D105A9F0B5
:1002600060E0C330D10581F68091CC010E94A600E8
:1002700060E006C061E08091CC010E94A60061E0D0
:100280008091CE010E94A600BFCF61E0EDCFC230C9
:10029000D10539F1C330D10509F0C5CF61E08091B6
:1002A000CC010E94A60060E022C061E08091CC01F8
:1002B0000E94A60060E08091CE010E94A60061E04D
:1002C0008091D0010E94A60060E08091D2010E943E
:1002D000A600A9CF60E08091CC010E94A60061E059
:1002E000EACF60E08091CC010E94A60061E080919D
:1002F000CE010E94A60060E08091D0010E94A6007D
:1003000061E0E3CF60E08091CC010E94A60061E053
:100310008091CE010E94A60061E00BC060E0809158
:10032000CC010E94A60061E08091CE010E94A6004F
:1003300060E08091D0010E94A60060E010C060E003
:100340008091CC010E94A60061E08091CE010E94C4
:10035000A60060E08091D0010E94A60061E080913B
:10036000D2010E94A60061E015C060E08091CC013E
:100370000E94A60061E08091CE010E94A60060E08C
:100380008091D0010E94A60061E08091D2010E947C
:10039000A60060E08091D401DF91CF910C94A6007B
:1003A00061E0E4CF61E08091CC010E94A60060E0B2
:1003B000E2CF61E08091CC010E94A60060E08091D4
:1003C000CE010E94A60061E0DBCF61E08091CC010C
:1003D0000E94A60060E08091CE010E94A60061E02C
:1003E0008091D0010E94A60060E0CFCF61E08091B3
:1003F000CC010E94A60060E08BCF60E0F8CFDF91D7
:10040000CF910895AF92BF92CF92DF92EF92FF9279
:100410000F931F93CF93DF936C017B018B01040F2C
:10042000151FEB015E01AE18BF08C017D10759F0C8
:100430006991D601ED91FC910190F081E02DC6010A
:100440000995892B79F7C501DF91CF911F910F9104
:10045000FF90EF90DF90CF90BF90AF900895FC0198
:10046000538D448D252F30E0842F90E0821B930B19
:10047000541710F0CF96089501970895FC01918DBF
:10048000828D981761F0A28DAE0FBF2FB11D5D96C2
:100490008C91928D9F5F9F73928F90E008958FEF64
:1004A0009FEF0895FC01918D828D981731F0828D18
:1004B000E80FF11D858D90E008958FEF9FEF08956F
:1004C000FC01918D228D892F90E0805C9F4F821BD3
:1004D00091098F739927089583E291E00E94600249
:1004E00021E0892B09F420E0822F089580E090E03C
:1004F000892B29F00E946C0281110C940000089550
:10050000FC01A48DA80FB92FB11DA35ABF4F2C9188
:10051000848D90E001968F739927848FA689B7897F
:100520002C93A089B1898C91837080648C93938D76
:10053000848D981306C00288F389E02D80818F7D19
:1005400080830895EF92FF920F931F93CF93DF93D1
:10055000EC0181E0888F9B8D8C8D98131AC0E889FF
:10056000F989808185FF15C09FB7F894EE89FF89CE
:100570006083E889F98980818370806480839FBF6C
:1005800081E090E0DF91CF911F910F91FF90EF906C
:100590000895F62E0B8D10E00F5F1F4F0F7311277C
:1005A000E02E8C8D8E110CC00FB607FCFACFE889B7
:1005B000F989808185FFF5CFCE010E948002F1CFBD
:1005C000EB8DEC0FFD2FF11DE35AFF4FF0829FB72B
:1005D000F8940B8FEA89FB8980818062CFCFCF931B
:1005E000DF93EC01888D8823B9F0AA89BB89E8895B
:1005F000F9898C9185FD03C0808186FD0DC00FB601
:1006000007FCF7CF8C9185FFF2CF808185FFEDCF7E
:10061000CE010E948002E9CFDF91CF9108951F9211
:100620000F920FB60F9211242F933F938F939F93A6
:10063000AF93BF9380911F0190912001A091210160
:10064000B091220130911E0123E0230F2D3758F580
:100650000196A11DB11D20931E0180931F0190934F
:100660002001A0932101B093220180911A01909161
:100670001B01A0911C01B0911D010196A11DB11D8E
:1006800080931A0190931B01A0931C01B0931D014C
:10069000BF91AF919F918F913F912F910F900FBE7E
:1006A0000F901F90189526E8230F0296A11DB11DEB
:1006B000D2CF1F920F920FB60F9211242F933F9318
:1006C0004F935F936F937F938F939F93AF93BF935A
:1006D000EF93FF9383E291E00E948002FF91EF91FC
:1006E000BF91AF919F918F917F916F915F914F914A
:1006F0003F912F910F900FBE0F901F9018951F9252
:100700000F920FB60F9211242F938F939F93EF9315
:10071000FF93E0913301F09134018081E091390140
:10072000F0913A0182FD1BC0908180913C018F5F66
:100730008F7320913D01821741F0E0913C01F0E080
:10074000ED5DFE4F958F80933C01FF91EF919F915E
:100750008F912F910F900FBE0F901F901895808151
:10076000F4CFCF93DF93E3E2F1E01382128288EEBD
:1007700093E0A0E0B0E084839583A683B78384E010
:1007800091E09183808385EC90E09587848784EC69
:1007900090E09787868780EC90E0918B808B81EC4E
:1007A00090E0938B828B82EC90E0958B848B86EC2F
:1007B00090E0978B868B118E128E138E148EC0EC68
:1007C000D1E01B861A86198218821E8A1F8A188E0B
:1007D000198E80E098E09F838E8388E090E09D876B
:1007E0008C878AE090E09F878E8789E090E0998BE4
:1007F000888B8BE090E09B8B8A8B88E00E9487003F
:100800008E850E94870088890E9487008A890E94BD
:1008100087001D8A1C8A84E090E099878887DF9191
:10082000CF910895789484B5826084BD84B5816049
:1008300084BD85B5826085BD85B5816085BD8091AB
:100840006E00816080936E00109281008091810023
:10085000826080938100809181008160809381001B
:10086000809180008160809380008091B1008460DD
:100870008093B1008091B00081608093B00080913E
:100880007A00846080937A0080917A0082608093FD
:100890007A0080917A00816080937A0080917A005A
:1008A000806880937A001092C100E0913301F0914A
:1008B000340182E08083E0912F01F09130011082B9
:1008C000E0913101F091320180E1808310923B018F
:1008D000E0913701F091380186E08083E0913501A5
:1008E000F0913601808180618083E0913501F09143
:1008F0003601808188608083E0913501F091360176
:10090000808180688083E0913501F091360180819B
:100910008F7D80832091C6013091C701032E000C8A
:10092000440B550B60E077E883E993E00E946F0584
:10093000CA01B9012FE030E040E050E00E946F05AD
:100940002093C2013093C3014093C4015093C50169
:1009500081E090E09093C1018093C001C0E0D2E0BB
:1009600004E010E05AE0E52EF12C209709F488C04D
:100970003FB7F89480911A0190911B01A0911C013E
:10098000B0911D0126B5A89B05C02F3F19F0019617
:10099000A11DB11D3FBFBA2FA92F982F8827820F05
:1009A000911DA11DB11D42E0880F991FAA1FBB1FF9
:1009B0004A95D1F74091D6015091D7016091D80165
:1009C0007091D9014C015D01841A950AA60AB70AF3
:1009D0004091C2015091C3016091C4017091C50161
:1009E00084169506A606B70608F4BFCF8093D601F5
:1009F0009093D701A093D801B093D9018091CA01F7
:100A00009091CB012091C0013091C101213031057D
:100A100019F501969093CB018093CA012091C601EC
:100A20003091C7018217930721F41092CB011092E5
:100A3000CA0121978091CA019091CB012091C801F0
:100A40003091C901B7012530310509F0B8010E9484
:100A50005B050E94F20089CF892B41F48091C60189
:100A60009091C7019093CB018093CA018091CA01F4
:100A70009091CB0101979093CB018093CA01D9CF7C
:100A800044E050E062E171E083E291E00E94020202
:100A900042E050E067E171E083E291E00E940202EF
:100AA000C0E0D0E02097F1F30E946C028823D1F3DC
:100AB0000E940000F7CF97FB072E16F4009407D092
:100AC00077FD09D00E94940507FC05D03EF490956F
:100AD00081959F4F0895709561957F4F0895052EDC
:100AE00097FB1EF400940E94860557FD07D00E94D4
:100AF000A80507FC03D04EF40C948605509540954C
:100B0000309521953F4F4F4F5F4F089590958095B9
:100B1000709561957F4F8F4F9F4F0895EE0FFF1F88
:100B20000590F491E02D0994AA1BBB1B51E107C06D
:100B3000AA1FBB1FA617B70710F0A61BB70B881F6D
:100B4000991F5A95A9F780959095BC01CD010895FC
:100B5000A1E21A2EAA1BBB1BFD010DC0AA1FBB1FC1
:100B6000EE1FFF1FA217B307E407F50720F0A21B33
:100B7000B30BE40BF50B661F771F881F991F1A94A0
:100B800069F760957095809590959B01AC01BD01CA
:080B9000CF010895F894FFCF96
:100B980000000000A20202022F02EF0260023E02E1
:0A0BA8005202646F6E65000D0A0032
:00000001FF
