:100000000C945E000C9486000C9486000C94860080
:100010000C9486000C9486000C9486000C94860048
:100020000C9486000C9486000C9486000C94860038
:100030000C9486000C9486000C9486000C94860028
:100040000C9498020C9486000C9408030C94E20221
:100050000C9486000C9486000C9486000C94860008
:100060000C9486000C9486000000000024002700F9
:100070002A0000000008000201000003040700003D
:10008000000000000000010204081020408001026E
:1000900004081020010204081020000000002500C0
:1000A00028002B00040404040404040402020202D5
:1000B00002020303030303033A03720511241FBE64
:1000C000CFEFD8E0DEBFCDBF11E0A0E0B1E0E4E7C4
:1000D000FDE002C005900D92A232B107D9F721E0F0
:1000E000A2E2B1E001C01D92A23EB207E1F710E02A
:1000F000CDE5D0E004C02197FE010E948205CC35F9
:10010000D107C9F70E94DB030C94AD060C940000E4
:100110008F929F92AF92BF92CF92DF92EF92FF9217
:100120000F931F93FC014B01AA24BB24C52ED62E8E
:10013000E72EFF24BC2DA42F9091D001B82C992339
:1001400091F0A92FB0E0A89D9001A99D300DB89D18
:10015000300D1124B32E9C9D60011124BD2D949F60
:1001600080011124A12F4091D6012091D10130911D
:10017000D2018091D301481324C0CF01880F991F69
:100180008E0F9F1F820F931FE091D301E80FF92F6D
:10019000F11DB082E091D401E80FF92FF11DB08379
:1001A0002091D501820F911DFC01A0831F910F9119
:1001B000FF90EF90DF90CF90BF90AF909F908F9087
:1001C0000895CF01880F991F880F991F820F931FE1
:1001D000FC01E40FF11D1082D7CF90E0FC01EE5836
:1001E000FF4F2491FC01EA57FF4F3491FC01EC557D
:1001F000FF4FE491EE23B9F0222339F02330F1F0E0
:1002000098F4213009F1223019F1F0E0EE0FFF1FD0
:10021000E656FF4FA591B4918FB7F894EC913095C5
:100220003E233C938FBF08952730A9F02830C9F0B2
:10023000243059F7809180008F7D03C08091800029
:100240008F7780938000E1CF84B58F7784BDDDCF39
:1002500084B58F7DFBCF8091B0008F778093B00005
:10026000D4CF8091B0008F7DF9CFCF93DF9390E012
:10027000FC01EA57FF4F24918C559F4FFC0184915C
:100280008823D1F090E0880F991FFC01E859FF4FB7
:10029000A591B491FC01E656FF4FC591D49161112F
:1002A0000EC09FB7F8948C91E22FE0958E238C932B
:1002B0002881E223E8839FBFDF91CF9108958FB714
:1002C000F894EC91E22BEC938FBFF6CF3FB7F89404
:1002D0008091270190912801A0912901B0912A01D4
:1002E00026B5A89B05C02F3F19F00196A11DB11D91
:1002F0003FBFBA2FA92F982F8827BC01CD01620FCD
:10030000711D811D911D42E0660F771F881F991F87
:100310004A95D1F70895AF92BF92CF92DF92EF92B4
:10032000FF920F931F93CF93DF936C017B018B019F
:10033000040F151FEB015E01AE18BF08C017D107EF
:1003400059F06991D601ED91FC910190F081E02D79
:10035000C6010995892B79F7C501DF91CF911F91CE
:100360000F91FF90EF90DF90CF90BF90AF900895E6
:10037000FC01538D448D252F30E0842F90E0821BAB
:10038000930B541710F0CF96089501970895FC0130
:10039000918D828D981761F0A28DAE0FBF2FB11D88
:1003A0005D968C91928D9F5F9F73928F90E00895E0
:1003B0008FEF9FEF0895FC01918D828D981731F09A
:1003C000828DE80FF11D858D90E008958FEF9FEFEE
:1003D0000895FC01918D228D892F90E0805C9F4FC4
:1003E000821B91098F73992708958BE291E00E94F7
:1003F000E90121E0892B09F420E0822F089580E0B3
:1004000090E0892B29F00E94F50181110C940000E5
:100410000895FC01A48DA80FB92FB11DA35ABF4F99
:100420002C91848D90E001968F739927848FA689F3
:10043000B7892C93A089B1898C91837080648C9347
:10044000938D848D981306C00288F389E02D8081F6
:100450008F7D80830895EF92FF920F931F93CF9328
:10046000DF93EC0181E0888F9B8D8C8D98131AC0EF
:10047000E889F989808185FF15C09FB7F894EE89D6
:10048000FF896083E889F989808183708064808333
:100490009FBF81E090E0DF91CF911F910F91FF907E
:1004A000EF900895F62E0B8D10E00F5F1F4F0F7326
:1004B0001127E02E8C8D8E110CC00FB607FCFACFE1
:1004C000E889F989808185FFF5CFCE010E94090274
:1004D000F1CFEB8DEC0FFD2FF11DE35AFF4FF082B2
:1004E0009FB7F8940B8FEA89FB8980818062CFCF18
:1004F000CF93DF93EC01888D8823B9F0AA89BB895B
:10050000E889F9898C9185FD03C0808186FD0DC045
:100510000FB607FCF7CF8C9185FFF2CF808185FF66
:10052000EDCFCE010E940902E9CFDF91CF9108956E
:100530001F920F920FB60F9211242F933F938F9318
:100540009F93AF93BF938091230190912401A09139
:100550002501B09126013091220123E0230F2D3790
:1005600058F50196A11DB11D20932201809323010E
:1005700090932401A0932501B09326018091270137
:1005800090912801A0912901B0912A010196A11D05
:10059000B11D8093270190932801A0932901B09366
:1005A0002A01BF91AF919F918F913F912F910F9011
:1005B0000FBE0F901F90189526E8230F0296A11DDD
:1005C000B11DD2CF1F920F920FB60F9211242F930D
:1005D0003F934F935F936F937F938F939F93AF93CB
:1005E000BF93EF93FF938BE291E00E940902FF918A
:1005F000EF91BF91AF919F918F917F916F915F919B
:100600004F913F912F910F900FBE0F901F90189513
:100610001F920F920FB60F9211242F938F939F93D7
:10062000EF93FF93E0913B01F0913C018081E091D9
:100630004101F091420182FD1BC0908180914401F3
:100640008F5F8F7320914501821741F0E091440143
:10065000F0E0E55DFE4F958F80934401FF91EF91AF
:100660009F918F912F910F900FBE0F901F90189513
:100670008081F4CF10922E0110922D0188EE93E02C
:10068000A0E0B0E080932F0190933001A09331015E
:10069000B09332018AE091E090932C0180932B017A
:1006A00085EC90E0909338018093370184EC90E0E2
:1006B00090933A018093390180EC90E090933C0153
:1006C00080933B0181EC90E090933E0180933D014B
:1006D00082EC90E09093400180933F0186EC90E0A3
:1006E0009093420180934101109244011092450180
:1006F00010924601109247011092C9011092D00148
:100700001092D7011092D8011092D9011092DA01FB
:1007100081E08093D6018093D3011092D40192E0BE
:100720009093D5018093C80180E390E09093CD0130
:100730008093CC010E9488059093D2018093D101CF
:10074000009781F120E3FC0111922A95E9F780E1FD
:1007500090E09093CB018093CA0186E090E0909363
:10076000CF018093CE018091C901882339F061E0E7
:1007700086E00E94350186E00E94ED00EAEAF0E0A2
:10078000E491F0E0EE0FFF1FE656FF4F8591949144
:100790009093DC018093DB01ECE8F0E0E491E093DE
:1007A000DD0108951092CD011092CC011092CB0181
:1007B0001092CA01D2CFCF93DF93CDB7DEB729977E
:1007C0000FB6F894DEBF0FBECDBF789484B58260BB
:1007D00084BD84B5816084BD85B5826085BD85B5E5
:1007E000816085BD80916E00816080936E00109263
:1007F00081008091810082608093810080918100DE
:10080000816080938100809180008160809380006E
:100810008091B10084608093B1008091B0008160CC
:100820008093B00080917A00846080937A008091F8
:100830007A00826080937A0080917A008160809350
:100840007A0080917A00806880937A001092C100CB
:100850008091CE019091CF0197FD08C161E00E9487
:1008600035018091CE010E94ED0081E08093C901A5
:100870008091CA019091CB01892B41F040E050E07A
:100880006FEF70E090E080E00E9488008091CA01E4
:100890009091CB01029740F040E05FEF60E070E0A4
:1008A00081E090E00E9488008091CA019091CB0184
:1008B000409740F04FEF50E060E070E08FE090E054
:1008C0000E9488008091D1019091D201892B09F476
:1008D0007CC00E9466010091D7011091D80120913F
:1008E000D9013091DA01601771078207930740F44C
:1008F0006093D7017093D8018093D9019093DA0166
:100900000091D7011091D8012091D9013091DA01DD
:10091000601B710B820B930B6C327140810591054A
:10092000C0F2F8948091CC019091CD019A83898393
:10093000E091D101F091D201DF0111968081898788
:100940009091C801E091DB01F091DC018091DD0123
:10095000992309F48EC09081982B98879081809577
:1009600089238F838F818C8388E08B8358856F8167
:1009700049853B812C8189819A81508347FD252FB0
:100980003A952083262F39F0441F00C00000608371
:10099000000000C0F2CF38E04D9160830000019765
:1009A00061F7F093DC01E093DB0149873B832C8303
:1009B0009A83898378940E9466016093D70170932B
:1009C000D8018093D9019093DA01E0913B01F09135
:1009D0003C0182E08083E0913701F0913801108280
:1009E000E0913901F0913A0180E180831092430156
:1009F000E0913F01F091400186E08083E0913D016C
:100A0000F0913E01808180618083E0913D01F09111
:100A10003E01808188608083E0913D01F0913E013C
:100A2000808180688083E0913D01F0913E0180816A
:100A30008F7D808345E050E068E171E08BE291E0DA
:100A40000E948B0142E050E06EE171E08BE291E0A8
:100A50000E948B0100E010E001151105E9F30E94EE
:100A6000F5018823C9F30E940000F6CF1092C90156
:100A7000FFCE9081982B98879081809589238F83D2
:100A80008F818E8388E08D8358856F8149853D8174
:100A90002E8189819A81508347FD252F00C000C097
:100AA000208300C000C000C000C000C06083000000
:100AB000262F3A9541F0441F000000C000C000C03E
:100AC00000C000C0E8CF38E04D9100C0608300C096
:100AD000019709F7F093DC01E093DB0149873D833F
:100AE0002E8366CF8091D1019091D2010E9424067D
:100AF0008091CE019091CF0197FD03C060E00C94EE
:100B000035010895EE0FFF1F0590F491E02D099433
:100B10000F931F93CF93DF938230910510F482E0FF
:100B200090E0E091E001F091E10130E020E0B0E000
:100B3000A0E0309799F42115310509F44AC0281B2B
:100B4000390B24303105D8F58A819B8161157105F7
:100B500089F1FB0193838283FE0111C040815181A1
:100B60000281138148175907E0F04817590799F493
:100B7000109761F012960C93129713961C9332966D
:100B8000CF01DF91CF911F910F9108950093E00164
:100B90001093E101F4CF2115310551F042175307AD
:100BA00038F0A901DB019A01BD01DF01F801C1CFD5
:100BB000EF01F9CF9093E1018093E001CDCFFE01E9
:100BC000E20FF31F819391932250310939832883D7
:100BD000D7CF2091DE013091DF01232B41F420910A
:100BE0000201309103013093DF012093DE01209157
:100BF0000001309101012115310541F42DB73EB7B7
:100C00004091040150910501241B350BE091DE0158
:100C1000F091DF01E217F307A0F42E1B3F0B28171A
:100C2000390778F0AC014E5F5F4F2417350748F065
:100C30004E0F5F1F5093DF014093DE01819391932C
:100C40009FCFF0E0E0E09CCFCF93DF930097E9F0F7
:100C5000FC01329713821282A091E001B091E10170
:100C6000ED0130E020E01097A1F420813181820F66
:100C7000931F2091DE013091DF012817390709F019
:100C800061C0F093DF01E093DE01DF91CF91089521
:100C9000EA01CE17DF07E8F54A815B819E01411525
:100CA0005105B1F7E901FB83EA8349915991C40FDA
:100CB000D51FEC17FD0761F4808191810296840FA6
:100CC000951FE90199838883828193819B838A831D
:100CD000F0E0E0E012968D919C9113970097B9F5A2
:100CE0002D913C911197CD010296820F931F209177
:100CF000DE013091DF012817390739F6309751F5B9
:100D00001092E1011092E001B093DF01A093DE01A7
:100D1000BCCFD383C28340815181840F951FC817F4
:100D2000D90761F44E5F5F4F88819981480F591F41
:100D3000518340838A819B8193838283211531056E
:100D400009F0B0CFF093E101E093E0019ECFFD0107
:100D5000DC01C0CF13821282D7CF10E0CDE5D0E006
:100D600004C0FE010E9482052196CE35D107C9F745
:040D7000F894FFCF25
:100D74000000E2012000000000002B028B01B801FA
:100D84007802E901C701DB0173686F776E000D0A11
:020D940000005D
:00000001FF
